{
  "contractName": "DiplomaContract",
  "abi": [
    {
      "inputs": [],
      "stateMutability": "nonpayable",
      "type": "constructor"
    },
    {
      "anonymous": false,
      "inputs": [
        {
          "indexed": true,
          "internalType": "address",
          "name": "newAdmin",
          "type": "address"
        }
      ],
      "name": "AdminChanged",
      "type": "event"
    },
    {
      "anonymous": false,
      "inputs": [
        {
          "indexed": true,
          "internalType": "uint256",
          "name": "diplomaId",
          "type": "uint256"
        },
        {
          "indexed": true,
          "internalType": "address",
          "name": "student",
          "type": "address"
        },
        {
          "indexed": false,
          "internalType": "string",
          "name": "institution",
          "type": "string"
        },
        {
          "indexed": false,
          "internalType": "string",
          "name": "program",
          "type": "string"
        },
        {
          "indexed": false,
          "internalType": "uint256",
          "name": "date",
          "type": "uint256"
        }
      ],
      "name": "DiplomaCreated",
      "type": "event"
    },
    {
      "anonymous": false,
      "inputs": [
        {
          "indexed": true,
          "internalType": "address",
          "name": "user",
          "type": "address"
        },
        {
          "indexed": false,
          "internalType": "string",
          "name": "role",
          "type": "string"
        }
      ],
      "name": "PermissionGranted",
      "type": "event"
    },
    {
      "anonymous": false,
      "inputs": [
        {
          "indexed": true,
          "internalType": "address",
          "name": "user",
          "type": "address"
        },
        {
          "indexed": false,
          "internalType": "string",
          "name": "role",
          "type": "string"
        }
      ],
      "name": "PermissionRevoked",
      "type": "event"
    },
    {
      "inputs": [],
      "name": "admin",
      "outputs": [
        {
          "internalType": "address",
          "name": "",
          "type": "address"
        }
      ],
      "stateMutability": "view",
      "type": "function",
      "constant": true
    },
    {
      "inputs": [],
      "name": "diplomaCount",
      "outputs": [
        {
          "internalType": "uint256",
          "name": "",
          "type": "uint256"
        }
      ],
      "stateMutability": "view",
      "type": "function",
      "constant": true
    },
    {
      "inputs": [
        {
          "internalType": "uint256",
          "name": "",
          "type": "uint256"
        }
      ],
      "name": "diplomas",
      "outputs": [
        {
          "internalType": "address",
          "name": "student",
          "type": "address"
        },
        {
          "internalType": "string",
          "name": "institution",
          "type": "string"
        },
        {
          "internalType": "string",
          "name": "program",
          "type": "string"
        },
        {
          "internalType": "uint256",
          "name": "date",
          "type": "uint256"
        }
      ],
      "stateMutability": "view",
      "type": "function",
      "constant": true
    },
    {
      "inputs": [
        {
          "internalType": "address",
          "name": "",
          "type": "address"
        }
      ],
      "name": "userRoles",
      "outputs": [
        {
          "internalType": "enum DiplomaContract.Role",
          "name": "",
          "type": "uint8"
        }
      ],
      "stateMutability": "view",
      "type": "function",
      "constant": true
    },
    {
      "inputs": [
        {
          "internalType": "address",
          "name": "student",
          "type": "address"
        },
        {
          "internalType": "string",
          "name": "institution",
          "type": "string"
        },
        {
          "internalType": "string",
          "name": "program",
          "type": "string"
        },
        {
          "internalType": "uint256",
          "name": "date",
          "type": "uint256"
        }
      ],
      "name": "createDiploma",
      "outputs": [],
      "stateMutability": "nonpayable",
      "type": "function"
    },
    {
      "inputs": [
        {
          "internalType": "uint256",
          "name": "diplomaId",
          "type": "uint256"
        }
      ],
      "name": "getDiploma",
      "outputs": [
        {
          "components": [
            {
              "internalType": "address",
              "name": "student",
              "type": "address"
            },
            {
              "internalType": "string",
              "name": "institution",
              "type": "string"
            },
            {
              "internalType": "string",
              "name": "program",
              "type": "string"
            },
            {
              "internalType": "uint256",
              "name": "date",
              "type": "uint256"
            }
          ],
          "internalType": "struct DiplomaContract.Diploma",
          "name": "",
          "type": "tuple"
        }
      ],
      "stateMutability": "view",
      "type": "function",
      "constant": true
    },
    {
      "inputs": [
        {
          "internalType": "address",
          "name": "user",
          "type": "address"
        },
        {
          "internalType": "string",
          "name": "role",
          "type": "string"
        }
      ],
      "name": "grantPermission",
      "outputs": [],
      "stateMutability": "nonpayable",
      "type": "function"
    },
    {
      "inputs": [
        {
          "internalType": "address",
          "name": "user",
          "type": "address"
        }
      ],
      "name": "revokePermission",
      "outputs": [],
      "stateMutability": "nonpayable",
      "type": "function"
    },
    {
      "inputs": [
        {
          "internalType": "enum DiplomaContract.Role",
          "name": "role",
          "type": "uint8"
        }
      ],
      "name": "getRoleString",
      "outputs": [
        {
          "internalType": "string",
          "name": "",
          "type": "string"
        }
      ],
      "stateMutability": "pure",
      "type": "function",
      "constant": true
    },
    {
      "inputs": [
        {
          "internalType": "address",
          "name": "newAdmin",
          "type": "address"
        }
      ],
      "name": "transferAdmin",
      "outputs": [],
      "stateMutability": "nonpayable",
      "type": "function"
    }
  ],
  "bytecode": "0x608060405234801561001057600080fd5b5033600260006101000a81548173ffffffffffffffffffffffffffffffffffffffff021916908373ffffffffffffffffffffffffffffffffffffffff160217905550600060036000600260009054906101000a900473ffffffffffffffffffffffffffffffffffffffff1673ffffffffffffffffffffffffffffffffffffffff1673ffffffffffffffffffffffffffffffffffffffff16815260200190815260200160002060006101000a81548160ff021916908360038111156100fd577f4e487b7100000000000000000000000000000000000000000000000000000000600052602160045260246000fd5b0217905550612033806101116000396000f3fe608060405234801561001057600080fd5b506004361061009e5760003560e01c8063a3bf5b9a11610066578063a3bf5b9a14610170578063b11528471461018c578063bbd9a5fa146101bc578063bd4f2765146101d8578063f851a440146101f45761009e565b806335dfc1c3146100a35780633f3c0a58146100d65780636920613f1461010657806374d5e1001461012457806375829def14610154575b600080fd5b6100bd60048036038101906100b89190611757565b610212565b6040516100cd9493929190611b40565b60405180910390f35b6100f060048036038101906100eb919061172e565b610372565b6040516100fd9190611bae565b60405180910390f35b61010e610663565b60405161011b9190611d17565b60405180910390f35b61013e6004803603810190610139919061161e565b610669565b60405161014b9190611b93565b60405180910390f35b61016e6004803603810190610169919061161e565b610689565b005b61018a6004803603810190610185919061161e565b6108c0565b005b6101a660048036038101906101a19190611757565b610aba565b6040516101b39190611cf5565b60405180910390f35b6101d660048036038101906101d19190611647565b610c6a565b005b6101f260048036038101906101ed919061169b565b6111b5565b005b6101fc611470565b6040516102099190611b25565b60405180910390f35b60006020528060005260406000206000915090508060000160009054906101000a900473ffffffffffffffffffffffffffffffffffffffff169080600101805461025b90611e63565b80601f016020809104026020016040519081016040528092919081815260200182805461028790611e63565b80156102d45780601f106102a9576101008083540402835291602001916102d4565b820191906000526020600020905b8154815290600101906020018083116102b757829003601f168201915b5050505050908060020180546102e990611e63565b80601f016020809104026020016040519081016040528092919081815260200182805461031590611e63565b80156103625780601f1061033757610100808354040283529160200191610362565b820191906000526020600020905b81548152906001019060200180831161034557829003601f168201915b5050505050908060030154905084565b6060600060038111156103ae577f4e487b7100000000000000000000000000000000000000000000000000000000600052602160045260246000fd5b8260038111156103e7577f4e487b7100000000000000000000000000000000000000000000000000000000600052602160045260246000fd5b141561042a576040518060400160405280600581526020017f41444d494e000000000000000000000000000000000000000000000000000000815250905061065e565b60016003811115610464577f4e487b7100000000000000000000000000000000000000000000000000000000600052602160045260246000fd5b82600381111561049d577f4e487b7100000000000000000000000000000000000000000000000000000000600052602160045260246000fd5b14156104e0576040518060400160405280600b81526020017f494e535449545554494f4e000000000000000000000000000000000000000000815250905061065e565b6002600381111561051a577f4e487b7100000000000000000000000000000000000000000000000000000000600052602160045260246000fd5b826003811115610553577f4e487b7100000000000000000000000000000000000000000000000000000000600052602160045260246000fd5b1415610596576040518060400160405280600781526020017f53545544454e5400000000000000000000000000000000000000000000000000815250905061065e565b6003808111156105cf577f4e487b7100000000000000000000000000000000000000000000000000000000600052602160045260246000fd5b826003811115610608577f4e487b7100000000000000000000000000000000000000000000000000000000600052602160045260246000fd5b141561064b576040518060400160405280600881526020017f454d504c4f594552000000000000000000000000000000000000000000000000815250905061065e565b6040518060200160405280600081525090505b919050565b60015481565b60036020528060005260406000206000915054906101000a900460ff1681565b600260009054906101000a900473ffffffffffffffffffffffffffffffffffffffff1673ffffffffffffffffffffffffffffffffffffffff163373ffffffffffffffffffffffffffffffffffffffff1614610719576040517f08c379a000000000000000000000000000000000000000000000000000000000815260040161071090611cb5565b60405180910390fd5b600073ffffffffffffffffffffffffffffffffffffffff168173ffffffffffffffffffffffffffffffffffffffff161415610789576040517f08c379a000000000000000000000000000000000000000000000000000000000815260040161078090611cd5565b60405180910390fd5b80600260006101000a81548173ffffffffffffffffffffffffffffffffffffffff021916908373ffffffffffffffffffffffffffffffffffffffff160217905550600060036000600260009054906101000a900473ffffffffffffffffffffffffffffffffffffffff1673ffffffffffffffffffffffffffffffffffffffff1673ffffffffffffffffffffffffffffffffffffffff16815260200190815260200160002060006101000a81548160ff02191690836003811115610875577f4e487b7100000000000000000000000000000000000000000000000000000000600052602160045260246000fd5b02179055508073ffffffffffffffffffffffffffffffffffffffff167f7ce7ec0b50378fb6c0186ffb5f48325f6593fcb4ca4386f21861af3129188f5c60405160405180910390a250565b600260009054906101000a900473ffffffffffffffffffffffffffffffffffffffff1673ffffffffffffffffffffffffffffffffffffffff163373ffffffffffffffffffffffffffffffffffffffff1614610950576040517f08c379a000000000000000000000000000000000000000000000000000000000815260040161094790611cb5565b60405180910390fd5b600073ffffffffffffffffffffffffffffffffffffffff168173ffffffffffffffffffffffffffffffffffffffff1614156109c0576040517f08c379a00000000000000000000000000000000000000000000000000000000081526004016109b790611c95565b60405180910390fd5b6000600360008373ffffffffffffffffffffffffffffffffffffffff1673ffffffffffffffffffffffffffffffffffffffff16815260200190815260200160002060009054906101000a900460ff169050600360008373ffffffffffffffffffffffffffffffffffffffff1673ffffffffffffffffffffffffffffffffffffffff16815260200190815260200160002060006101000a81549060ff02191690558173ffffffffffffffffffffffffffffffffffffffff167f280695bd728e67c68c12776e30681a8ca746d6122488eab32b7bdec64eb2e733610aa183610372565b604051610aae9190611bae565b60405180910390a25050565b610ac2611496565b6000808381526020019081526020016000206040518060800160405290816000820160009054906101000a900473ffffffffffffffffffffffffffffffffffffffff1673ffffffffffffffffffffffffffffffffffffffff1673ffffffffffffffffffffffffffffffffffffffff168152602001600182018054610b4590611e63565b80601f0160208091040260200160405190810160405280929190818152602001828054610b7190611e63565b8015610bbe5780601f10610b9357610100808354040283529160200191610bbe565b820191906000526020600020905b815481529060010190602001808311610ba157829003601f168201915b50505050508152602001600282018054610bd790611e63565b80601f0160208091040260200160405190810160405280929190818152602001828054610c0390611e63565b8015610c505780601f10610c2557610100808354040283529160200191610c50565b820191906000526020600020905b815481529060010190602001808311610c3357829003601f168201915b505050505081526020016003820154815250509050919050565b600260009054906101000a900473ffffffffffffffffffffffffffffffffffffffff1673ffffffffffffffffffffffffffffffffffffffff163373ffffffffffffffffffffffffffffffffffffffff1614610cfa576040517f08c379a0000000000000000000000000000000000000000000000000000000008152600401610cf190611cb5565b60405180910390fd5b600073ffffffffffffffffffffffffffffffffffffffff168273ffffffffffffffffffffffffffffffffffffffff161415610d6a576040517f08c379a0000000000000000000000000000000000000000000000000000000008152600401610d6190611c95565b60405180910390fd5b6000815111610dae576040517f08c379a0000000000000000000000000000000000000000000000000000000008152600401610da590611c55565b60405180910390fd5b6040518060400160405280600581526020017f41444d494e0000000000000000000000000000000000000000000000000000008152508051906020012081805190602001201415610e8c576000600360008473ffffffffffffffffffffffffffffffffffffffff1673ffffffffffffffffffffffffffffffffffffffff16815260200190815260200160002060006101000a81548160ff02191690836003811115610e82577f4e487b7100000000000000000000000000000000000000000000000000000000600052602160045260246000fd5b0217905550611163565b6040518060400160405280600b81526020017f494e535449545554494f4e0000000000000000000000000000000000000000008152508051906020012081805190602001201415610f6a576001600360008473ffffffffffffffffffffffffffffffffffffffff1673ffffffffffffffffffffffffffffffffffffffff16815260200190815260200160002060006101000a81548160ff02191690836003811115610f60577f4e487b7100000000000000000000000000000000000000000000000000000000600052602160045260246000fd5b0217905550611162565b6040518060400160405280600781526020017f53545544454e54000000000000000000000000000000000000000000000000008152508051906020012081805190602001201415611048576002600360008473ffffffffffffffffffffffffffffffffffffffff1673ffffffffffffffffffffffffffffffffffffffff16815260200190815260200160002060006101000a81548160ff0219169083600381111561103e577f4e487b7100000000000000000000000000000000000000000000000000000000600052602160045260246000fd5b0217905550611161565b6040518060400160405280600881526020017f454d504c4f59455200000000000000000000000000000000000000000000000081525080519060200120818051906020012014156111255760038060008473ffffffffffffffffffffffffffffffffffffffff1673ffffffffffffffffffffffffffffffffffffffff16815260200190815260200160002060006101000a81548160ff0219169083600381111561111b577f4e487b7100000000000000000000000000000000000000000000000000000000600052602160045260246000fd5b0217905550611160565b6040517f08c379a000000000000000000000000000000000000000000000000000000000815260040161115790611c35565b60405180910390fd5b5b5b5b8173ffffffffffffffffffffffffffffffffffffffff167f3e7a939fe856e16ddb4b017165d29dcf6d87c6bc6115a55d7895ec3e7d4c66a1826040516111a99190611bae565b60405180910390a25050565b600160038111156111ef577f4e487b7100000000000000000000000000000000000000000000000000000000600052602160045260246000fd5b600360003373ffffffffffffffffffffffffffffffffffffffff1673ffffffffffffffffffffffffffffffffffffffff16815260200190815260200160002060009054906101000a900460ff166003811115611274577f4e487b7100000000000000000000000000000000000000000000000000000000600052602160045260246000fd5b146112b4576040517f08c379a00000000000000000000000000000000000000000000000000000000081526004016112ab90611c15565b60405180910390fd5b600073ffffffffffffffffffffffffffffffffffffffff168473ffffffffffffffffffffffffffffffffffffffff161415611324576040517f08c379a000000000000000000000000000000000000000000000000000000000815260040161131b90611c75565b60405180910390fd5b6001600081548092919061133790611e95565b919050555060405180608001604052808573ffffffffffffffffffffffffffffffffffffffff16815260200184815260200183815260200182815250600080600154815260200190815260200160002060008201518160000160006101000a81548173ffffffffffffffffffffffffffffffffffffffff021916908373ffffffffffffffffffffffffffffffffffffffff16021790555060208201518160010190805190602001906113ea9291906114d4565b5060408201518160020190805190602001906114079291906114d4565b50606082015181600301559050508373ffffffffffffffffffffffffffffffffffffffff166001547fe8865b0aba4badd7ae6a8579db7db0f9cfa2dceac1a619528f8c529702ea9c1c85858560405161146293929190611bd0565b60405180910390a350505050565b600260009054906101000a900473ffffffffffffffffffffffffffffffffffffffff1681565b6040518060800160405280600073ffffffffffffffffffffffffffffffffffffffff1681526020016060815260200160608152602001600081525090565b8280546114e090611e63565b90600052602060002090601f0160209004810192826115025760008555611549565b82601f1061151b57805160ff1916838001178555611549565b82800160010185558215611549579182015b8281111561154857825182559160200191906001019061152d565b5b509050611556919061155a565b5090565b5b8082111561157357600081600090555060010161155b565b5090565b600061158a61158584611d63565b611d32565b9050828152602081018484840111156115a257600080fd5b6115ad848285611e21565b509392505050565b6000813590506115c481611fbf565b92915050565b6000813590506115d981611fd6565b92915050565b600082601f8301126115f057600080fd5b8135611600848260208601611577565b91505092915050565b60008135905061161881611fe6565b92915050565b60006020828403121561163057600080fd5b600061163e848285016115b5565b91505092915050565b6000806040838503121561165a57600080fd5b6000611668858286016115b5565b925050602083013567ffffffffffffffff81111561168557600080fd5b611691858286016115df565b9150509250929050565b600080600080608085870312156116b157600080fd5b60006116bf878288016115b5565b945050602085013567ffffffffffffffff8111156116dc57600080fd5b6116e8878288016115df565b935050604085013567ffffffffffffffff81111561170557600080fd5b611711878288016115df565b925050606061172287828801611609565b91505092959194509250565b60006020828403121561174057600080fd5b600061174e848285016115ca565b91505092915050565b60006020828403121561176957600080fd5b600061177784828501611609565b91505092915050565b61178981611dc0565b82525050565b61179881611dc0565b82525050565b6117a781611e0f565b82525050565b60006117b882611d93565b6117c28185611d9e565b93506117d2818560208601611e30565b6117db81611f9a565b840191505092915050565b60006117f182611d93565b6117fb8185611daf565b935061180b818560208601611e30565b61181481611f9a565b840191505092915050565b600061182c602983611daf565b91507f4f6e6c7920696e737469747574696f6e732063616e20706572666f726d20746860008301527f697320616374696f6e00000000000000000000000000000000000000000000006020830152604082019050919050565b6000611892600c83611daf565b91507f496e76616c696420726f6c6500000000000000000000000000000000000000006000830152602082019050919050565b60006118d2601483611daf565b91507f526f6c652063616e6e6f7420626520656d7074790000000000000000000000006000830152602082019050919050565b6000611912602683611daf565b91507f53747564656e7420616464726573732063616e6e6f74206265207a65726f206160008301527f64647265737300000000000000000000000000000000000000000000000000006020830152604082019050919050565b6000611978602383611daf565b91507f5573657220616464726573732063616e6e6f74206265207a65726f206164647260008301527f65737300000000000000000000000000000000000000000000000000000000006020830152604082019050919050565b60006119de602283611daf565b91507f4f6e6c792061646d696e2063616e20706572666f726d2074686973206163746960008301527f6f6e0000000000000000000000000000000000000000000000000000000000006020830152604082019050919050565b6000611a44602883611daf565b91507f4e65772061646d696e20616464726573732063616e6e6f74206265207a65726f60008301527f20616464726573730000000000000000000000000000000000000000000000006020830152604082019050919050565b6000608083016000830151611ab56000860182611780565b5060208301518482036020860152611acd82826117ad565b91505060408301518482036040860152611ae782826117ad565b9150506060830151611afc6060860182611b07565b508091505092915050565b611b1081611e05565b82525050565b611b1f81611e05565b82525050565b6000602082019050611b3a600083018461178f565b92915050565b6000608082019050611b55600083018761178f565b8181036020830152611b6781866117e6565b90508181036040830152611b7b81856117e6565b9050611b8a6060830184611b16565b95945050505050565b6000602082019050611ba8600083018461179e565b92915050565b60006020820190508181036000830152611bc881846117e6565b905092915050565b60006060820190508181036000830152611bea81866117e6565b90508181036020830152611bfe81856117e6565b9050611c0d6040830184611b16565b949350505050565b60006020820190508181036000830152611c2e8161181f565b9050919050565b60006020820190508181036000830152611c4e81611885565b9050919050565b60006020820190508181036000830152611c6e816118c5565b9050919050565b60006020820190508181036000830152611c8e81611905565b9050919050565b60006020820190508181036000830152611cae8161196b565b9050919050565b60006020820190508181036000830152611cce816119d1565b9050919050565b60006020820190508181036000830152611cee81611a37565b9050919050565b60006020820190508181036000830152611d0f8184611a9d565b905092915050565b6000602082019050611d2c6000830184611b16565b92915050565b6000604051905081810181811067ffffffffffffffff82111715611d5957611d58611f6b565b5b8060405250919050565b600067ffffffffffffffff821115611d7e57611d7d611f6b565b5b601f19601f8301169050602081019050919050565b600081519050919050565b600082825260208201905092915050565b600082825260208201905092915050565b6000611dcb82611de5565b9050919050565b6000819050611de082611fab565b919050565b600073ffffffffffffffffffffffffffffffffffffffff82169050919050565b6000819050919050565b6000611e1a82611dd2565b9050919050565b82818337600083830152505050565b60005b83811015611e4e578082015181840152602081019050611e33565b83811115611e5d576000848401525b50505050565b60006002820490506001821680611e7b57607f821691505b60208210811415611e8f57611e8e611f3c565b5b50919050565b6000611ea082611e05565b91507fffffffffffffffffffffffffffffffffffffffffffffffffffffffffffffffff821415611ed357611ed2611ede565b5b600182019050919050565b7f4e487b7100000000000000000000000000000000000000000000000000000000600052601160045260246000fd5b7f4e487b7100000000000000000000000000000000000000000000000000000000600052602160045260246000fd5b7f4e487b7100000000000000000000000000000000000000000000000000000000600052602260045260246000fd5b7f4e487b7100000000000000000000000000000000000000000000000000000000600052604160045260246000fd5b6000601f19601f8301169050919050565b60048110611fbc57611fbb611f0d565b5b50565b611fc881611dc0565b8114611fd357600080fd5b50565b60048110611fe357600080fd5b50565b611fef81611e05565b8114611ffa57600080fd5b5056fea26469706673582212200d1a11044592de133224adea1726c25c4a6720c633d46223fd8f1c3c347eb0b264736f6c63430008000033",
  "immutableReferences": {},
  "source": "// SPDX-License-Identifier: MIT\r\npragma solidity ^0.8.0;\r\n\r\ncontract DiplomaContract {\r\n    enum Role { ADMIN, INSTITUTION, STUDENT, EMPLOYER }\r\n\r\n    struct Diploma {\r\n        address student;\r\n        string institution;\r\n        string program;\r\n        uint256 date;\r\n    }\r\n\r\n    mapping(uint256 => Diploma) public diplomas;\r\n    uint256 public diplomaCount;\r\n\r\n    address public admin;\r\n    mapping(address => Role) public userRoles;\r\n\r\n    event DiplomaCreated(\r\n        uint256 indexed diplomaId,\r\n        address indexed student,\r\n        string institution,\r\n        string program,\r\n        uint256 date\r\n    );\r\n\r\n    event AdminChanged(address indexed newAdmin);\r\n    event PermissionGranted(address indexed user, string role);\r\n    event PermissionRevoked(address indexed user, string role);\r\n\r\n    modifier onlyAdmin() {\r\n        require(msg.sender == admin, \"Only admin can perform this action\");\r\n        _;\r\n    }\r\n\r\n    modifier onlyInstitution() {\r\n        require(userRoles[msg.sender] == Role.INSTITUTION, \"Only institutions can perform this action\");\r\n        _;\r\n    }\r\n\r\n    constructor() {\r\n        admin = msg.sender;\r\n        userRoles[admin] = Role.ADMIN;\r\n    }\r\n\r\n    function createDiploma(\r\n        address student,\r\n        string memory institution,\r\n        string memory program,\r\n        uint256 date\r\n    ) public onlyInstitution {\r\n        require(student != address(0), \"Student address cannot be zero address\");\r\n        \r\n        diplomaCount++;\r\n        diplomas[diplomaCount] = Diploma(student, institution, program, date);\r\n\r\n        emit DiplomaCreated(diplomaCount, student, institution, program, date);\r\n    }\r\n\r\n    function getDiploma(uint256 diplomaId) public view returns (Diploma memory) {\r\n        return diplomas[diplomaId];\r\n    }\r\n\r\n    function grantPermission(address user, string memory role) public onlyAdmin {\r\n        require(user != address(0), \"User address cannot be zero address\");\r\n        require(bytes(role).length > 0, \"Role cannot be empty\");\r\n\r\n        if (keccak256(bytes(role)) == keccak256(bytes(\"ADMIN\"))) {\r\n            userRoles[user] = Role.ADMIN;\r\n        } else if (keccak256(bytes(role)) == keccak256(bytes(\"INSTITUTION\"))) {\r\n            userRoles[user] = Role.INSTITUTION;\r\n        } else if (keccak256(bytes(role)) == keccak256(bytes(\"STUDENT\"))) {\r\n            userRoles[user] = Role.STUDENT;\r\n        } else if (keccak256(bytes(role)) == keccak256(bytes(\"EMPLOYER\"))) {\r\n            userRoles[user] = Role.EMPLOYER;\r\n        } else {\r\n            revert(\"Invalid role\");\r\n        }\r\n\r\n        emit PermissionGranted(user, role);\r\n    }\r\n\r\n    function revokePermission(address user) public onlyAdmin {\r\n        require(user != address(0), \"User address cannot be zero address\");\r\n\r\n        Role currentRole = userRoles[user];\r\n        delete userRoles[user];  // Reset the user's role to default (0)\r\n\r\n        emit PermissionRevoked(user, getRoleString(currentRole));\r\n    }\r\n\r\n    function getRoleString(Role role) public pure returns (string memory) {\r\n        if (role == Role.ADMIN) {\r\n            return \"ADMIN\";\r\n        } else if (role == Role.INSTITUTION) {\r\n            return \"INSTITUTION\";\r\n        } else if (role == Role.STUDENT) {\r\n            return \"STUDENT\";\r\n        } else if (role == Role.EMPLOYER) {\r\n            return \"EMPLOYER\";\r\n        } else {\r\n            return \"\";\r\n        }\r\n    }\r\n\r\n    function transferAdmin(address newAdmin) public onlyAdmin {\r\n        require(newAdmin != address(0), \"New admin address cannot be zero address\");\r\n        \r\n        admin = newAdmin;\r\n        userRoles[admin] = Role.ADMIN;\r\n\r\n        emit AdminChanged(newAdmin);\r\n    }\r\n}\r\n",
  "sourcePath": "C:\\Users\\escan\\OneDrive\\Desktop\\Dapp\\contracts\\DiplomaContract.sol",
  "compiler": {
    "name": "solc",
    "version": "0.8.0+commit.c7dfd78e.Emscripten.clang"
  },
  "schemaVersion": "3.4.16",
  "updatedAt": "2024-09-29T15:32:49.887Z",
  "networkType": "ethereum",
  "devdoc": {
    "kind": "dev",
    "methods": {},
    "version": 1
  },
  "userdoc": {
    "kind": "user",
    "methods": {},
    "version": 1
  }
}