{
  "contractName": "DiplomaVerificationContract",
  "abi": [
    {
      "inputs": [],
      "stateMutability": "nonpayable",
      "type": "constructor"
    },
    {
      "anonymous": false,
      "inputs": [
        {
          "indexed": true,
          "internalType": "address",
          "name": "newAdmin",
          "type": "address"
        }
      ],
      "name": "AdminChanged",
      "type": "event"
    },
    {
      "anonymous": false,
      "inputs": [
        {
          "indexed": true,
          "internalType": "uint256",
          "name": "diplomaId",
          "type": "uint256"
        },
        {
          "indexed": true,
          "internalType": "address",
          "name": "student",
          "type": "address"
        },
        {
          "indexed": false,
          "internalType": "string",
          "name": "institution",
          "type": "string"
        },
        {
          "indexed": false,
          "internalType": "string",
          "name": "program",
          "type": "string"
        },
        {
          "indexed": false,
          "internalType": "uint256",
          "name": "date",
          "type": "uint256"
        }
      ],
      "name": "DiplomaCreated",
      "type": "event"
    },
    {
      "inputs": [],
      "name": "admin",
      "outputs": [
        {
          "internalType": "address",
          "name": "",
          "type": "address"
        }
      ],
      "stateMutability": "view",
      "type": "function",
      "constant": true
    },
    {
      "inputs": [],
      "name": "diplomaCount",
      "outputs": [
        {
          "internalType": "uint256",
          "name": "",
          "type": "uint256"
        }
      ],
      "stateMutability": "view",
      "type": "function",
      "constant": true
    },
    {
      "inputs": [
        {
          "internalType": "uint256",
          "name": "",
          "type": "uint256"
        }
      ],
      "name": "diplomas",
      "outputs": [
        {
          "internalType": "address",
          "name": "student",
          "type": "address"
        },
        {
          "internalType": "string",
          "name": "institution",
          "type": "string"
        },
        {
          "internalType": "string",
          "name": "program",
          "type": "string"
        },
        {
          "internalType": "uint256",
          "name": "date",
          "type": "uint256"
        }
      ],
      "stateMutability": "view",
      "type": "function",
      "constant": true
    },
    {
      "inputs": [
        {
          "internalType": "address",
          "name": "student",
          "type": "address"
        },
        {
          "internalType": "string",
          "name": "institution",
          "type": "string"
        },
        {
          "internalType": "string",
          "name": "program",
          "type": "string"
        },
        {
          "internalType": "uint256",
          "name": "date",
          "type": "uint256"
        }
      ],
      "name": "createDiploma",
      "outputs": [],
      "stateMutability": "nonpayable",
      "type": "function"
    },
    {
      "inputs": [
        {
          "internalType": "uint256",
          "name": "diplomaId",
          "type": "uint256"
        }
      ],
      "name": "getDiploma",
      "outputs": [
        {
          "components": [
            {
              "internalType": "address",
              "name": "student",
              "type": "address"
            },
            {
              "internalType": "string",
              "name": "institution",
              "type": "string"
            },
            {
              "internalType": "string",
              "name": "program",
              "type": "string"
            },
            {
              "internalType": "uint256",
              "name": "date",
              "type": "uint256"
            }
          ],
          "internalType": "struct DiplomaVerificationContract.Diploma",
          "name": "",
          "type": "tuple"
        }
      ],
      "stateMutability": "view",
      "type": "function",
      "constant": true
    },
    {
      "inputs": [
        {
          "internalType": "uint256",
          "name": "diplomaId",
          "type": "uint256"
        }
      ],
      "name": "verifyDiploma",
      "outputs": [
        {
          "internalType": "bool",
          "name": "",
          "type": "bool"
        }
      ],
      "stateMutability": "view",
      "type": "function",
      "constant": true
    },
    {
      "inputs": [
        {
          "internalType": "address",
          "name": "newAdmin",
          "type": "address"
        }
      ],
      "name": "transferAdmin",
      "outputs": [],
      "stateMutability": "nonpayable",
      "type": "function"
    }
  ],
  "bytecode": "0x608060405234801561001057600080fd5b5033600260006101000a81548173ffffffffffffffffffffffffffffffffffffffff021916908373ffffffffffffffffffffffffffffffffffffffff160217905550611401806100616000396000f3fe608060405234801561001057600080fd5b506004361061007d5760003560e01c806375829def1161005b57806375829def14610103578063b11528471461011f578063bd4f27651461014f578063f851a4401461016b5761007d565b806335dfc1c31461008257806342df8ec7146100b55780636920613f146100e5575b600080fd5b61009c60048036038101906100979190610c5f565b610189565b6040516100ac9493929190610fbc565b60405180910390f35b6100cf60048036038101906100ca9190610c5f565b6102e9565b6040516100dc919061100f565b60405180910390f35b6100ed6103a8565b6040516100fa9190611151565b60405180910390f35b61011d60048036038101906101189190610ba3565b6103ae565b005b61013960048036038101906101349190610c5f565b610535565b604051610146919061112f565b60405180910390f35b61016960048036038101906101649190610bcc565b610736565b005b610173610a0a565b6040516101809190610fa1565b60405180910390f35b60006020528060005260406000206000915090508060000160009054906101000a900473ffffffffffffffffffffffffffffffffffffffff16908060010180546101d290611284565b80601f01602080910402602001604051908101604052809291908181526020018280546101fe90611284565b801561024b5780601f106102205761010080835404028352916020019161024b565b820191906000526020600020905b81548152906001019060200180831161022e57829003601f168201915b50505050509080600201805461026090611284565b80601f016020809104026020016040519081016040528092919081815260200182805461028c90611284565b80156102d95780601f106102ae576101008083540402835291602001916102d9565b820191906000526020600020905b8154815290600101906020018083116102bc57829003601f168201915b5050505050908060030154905084565b600080821180156102fc57506001548211155b61033b576040517f08c379a00000000000000000000000000000000000000000000000000000000081526004016103329061108f565b60405180910390fd5b600073ffffffffffffffffffffffffffffffffffffffff1660008084815260200190815260200160002060000160009054906101000a900473ffffffffffffffffffffffffffffffffffffffff1673ffffffffffffffffffffffffffffffffffffffff1614159050919050565b60015481565b600260009054906101000a900473ffffffffffffffffffffffffffffffffffffffff1673ffffffffffffffffffffffffffffffffffffffff163373ffffffffffffffffffffffffffffffffffffffff161461043e576040517f08c379a0000000000000000000000000000000000000000000000000000000008152600401610435906110cf565b60405180910390fd5b600073ffffffffffffffffffffffffffffffffffffffff168173ffffffffffffffffffffffffffffffffffffffff1614156104ae576040517f08c379a00000000000000000000000000000000000000000000000000000000081526004016104a5906110ef565b60405180910390fd5b80600260006101000a81548173ffffffffffffffffffffffffffffffffffffffff021916908373ffffffffffffffffffffffffffffffffffffffff1602179055508073ffffffffffffffffffffffffffffffffffffffff167f7ce7ec0b50378fb6c0186ffb5f48325f6593fcb4ca4386f21861af3129188f5c60405160405180910390a250565b61053d610a30565b60008211801561054f57506001548211155b61058e576040517f08c379a00000000000000000000000000000000000000000000000000000000081526004016105859061108f565b60405180910390fd5b6000808381526020019081526020016000206040518060800160405290816000820160009054906101000a900473ffffffffffffffffffffffffffffffffffffffff1673ffffffffffffffffffffffffffffffffffffffff1673ffffffffffffffffffffffffffffffffffffffff16815260200160018201805461061190611284565b80601f016020809104026020016040519081016040528092919081815260200182805461063d90611284565b801561068a5780601f1061065f5761010080835404028352916020019161068a565b820191906000526020600020905b81548152906001019060200180831161066d57829003601f168201915b505050505081526020016002820180546106a390611284565b80601f01602080910402602001604051908101604052809291908181526020018280546106cf90611284565b801561071c5780601f106106f15761010080835404028352916020019161071c565b820191906000526020600020905b8154815290600101906020018083116106ff57829003601f168201915b505050505081526020016003820154815250509050919050565b600260009054906101000a900473ffffffffffffffffffffffffffffffffffffffff1673ffffffffffffffffffffffffffffffffffffffff163373ffffffffffffffffffffffffffffffffffffffff16146107c6576040517f08c379a00000000000000000000000000000000000000000000000000000000081526004016107bd906110cf565b60405180910390fd5b600073ffffffffffffffffffffffffffffffffffffffff168473ffffffffffffffffffffffffffffffffffffffff161415610836576040517f08c379a000000000000000000000000000000000000000000000000000000000815260040161082d906110af565b60405180910390fd5b600083511161087a576040517f08c379a00000000000000000000000000000000000000000000000000000000081526004016108719061110f565b60405180910390fd5b60008251116108be576040517f08c379a00000000000000000000000000000000000000000000000000000000081526004016108b59061106f565b60405180910390fd5b600160008154809291906108d1906112b6565b919050555060405180608001604052808573ffffffffffffffffffffffffffffffffffffffff16815260200184815260200183815260200182815250600080600154815260200190815260200160002060008201518160000160006101000a81548173ffffffffffffffffffffffffffffffffffffffff021916908373ffffffffffffffffffffffffffffffffffffffff1602179055506020820151816001019080519060200190610984929190610a6e565b5060408201518160020190805190602001906109a1929190610a6e565b50606082015181600301559050508373ffffffffffffffffffffffffffffffffffffffff166001547fe8865b0aba4badd7ae6a8579db7db0f9cfa2dceac1a619528f8c529702ea9c1c8585856040516109fc9392919061102a565b60405180910390a350505050565b600260009054906101000a900473ffffffffffffffffffffffffffffffffffffffff1681565b6040518060800160405280600073ffffffffffffffffffffffffffffffffffffffff1681526020016060815260200160608152602001600081525090565b828054610a7a90611284565b90600052602060002090601f016020900481019282610a9c5760008555610ae3565b82601f10610ab557805160ff1916838001178555610ae3565b82800160010185558215610ae3579182015b82811115610ae2578251825591602001919060010190610ac7565b5b509050610af09190610af4565b5090565b5b80821115610b0d576000816000905550600101610af5565b5090565b6000610b24610b1f8461119d565b61116c565b905082815260208101848484011115610b3c57600080fd5b610b47848285611242565b509392505050565b600081359050610b5e8161139d565b92915050565b600082601f830112610b7557600080fd5b8135610b85848260208601610b11565b91505092915050565b600081359050610b9d816113b4565b92915050565b600060208284031215610bb557600080fd5b6000610bc384828501610b4f565b91505092915050565b60008060008060808587031215610be257600080fd5b6000610bf087828801610b4f565b945050602085013567ffffffffffffffff811115610c0d57600080fd5b610c1987828801610b64565b935050604085013567ffffffffffffffff811115610c3657600080fd5b610c4287828801610b64565b9250506060610c5387828801610b8e565b91505092959194509250565b600060208284031215610c7157600080fd5b6000610c7f84828501610b8e565b91505092915050565b610c91816111fa565b82525050565b610ca0816111fa565b82525050565b610caf8161120c565b82525050565b6000610cc0826111cd565b610cca81856111d8565b9350610cda818560208601611251565b610ce38161138c565b840191505092915050565b6000610cf9826111cd565b610d0381856111e9565b9350610d13818560208601611251565b610d1c8161138c565b840191505092915050565b6000610d34601c836111e9565b91507f50726f6772616d206e616d652063616e6e6f7420626520656d707479000000006000830152602082019050919050565b6000610d746012836111e9565b91507f496e76616c6964206469706c6f6d6120494400000000000000000000000000006000830152602082019050919050565b6000610db46026836111e9565b91507f53747564656e7420616464726573732063616e6e6f74206265207a65726f206160008301527f64647265737300000000000000000000000000000000000000000000000000006020830152604082019050919050565b6000610e1a6022836111e9565b91507f4f6e6c792061646d696e2063616e20706572666f726d2074686973206163746960008301527f6f6e0000000000000000000000000000000000000000000000000000000000006020830152604082019050919050565b6000610e806028836111e9565b91507f4e65772061646d696e20616464726573732063616e6e6f74206265207a65726f60008301527f20616464726573730000000000000000000000000000000000000000000000006020830152604082019050919050565b6000610ee66020836111e9565b91507f496e737469747574696f6e206e616d652063616e6e6f7420626520656d7074796000830152602082019050919050565b6000608083016000830151610f316000860182610c88565b5060208301518482036020860152610f498282610cb5565b91505060408301518482036040860152610f638282610cb5565b9150506060830151610f786060860182610f83565b508091505092915050565b610f8c81611238565b82525050565b610f9b81611238565b82525050565b6000602082019050610fb66000830184610c97565b92915050565b6000608082019050610fd16000830187610c97565b8181036020830152610fe38186610cee565b90508181036040830152610ff78185610cee565b90506110066060830184610f92565b95945050505050565b60006020820190506110246000830184610ca6565b92915050565b600060608201905081810360008301526110448186610cee565b905081810360208301526110588185610cee565b90506110676040830184610f92565b949350505050565b6000602082019050818103600083015261108881610d27565b9050919050565b600060208201905081810360008301526110a881610d67565b9050919050565b600060208201905081810360008301526110c881610da7565b9050919050565b600060208201905081810360008301526110e881610e0d565b9050919050565b6000602082019050818103600083015261110881610e73565b9050919050565b6000602082019050818103600083015261112881610ed9565b9050919050565b600060208201905081810360008301526111498184610f19565b905092915050565b60006020820190506111666000830184610f92565b92915050565b6000604051905081810181811067ffffffffffffffff821117156111935761119261135d565b5b8060405250919050565b600067ffffffffffffffff8211156111b8576111b761135d565b5b601f19601f8301169050602081019050919050565b600081519050919050565b600082825260208201905092915050565b600082825260208201905092915050565b600061120582611218565b9050919050565b60008115159050919050565b600073ffffffffffffffffffffffffffffffffffffffff82169050919050565b6000819050919050565b82818337600083830152505050565b60005b8381101561126f578082015181840152602081019050611254565b8381111561127e576000848401525b50505050565b6000600282049050600182168061129c57607f821691505b602082108114156112b0576112af61132e565b5b50919050565b60006112c182611238565b91507fffffffffffffffffffffffffffffffffffffffffffffffffffffffffffffffff8214156112f4576112f36112ff565b5b600182019050919050565b7f4e487b7100000000000000000000000000000000000000000000000000000000600052601160045260246000fd5b7f4e487b7100000000000000000000000000000000000000000000000000000000600052602260045260246000fd5b7f4e487b7100000000000000000000000000000000000000000000000000000000600052604160045260246000fd5b6000601f19601f8301169050919050565b6113a6816111fa565b81146113b157600080fd5b50565b6113bd81611238565b81146113c857600080fd5b5056fea26469706673582212208496ace6d80fa4a57dd7b1960f6f3619634244a53b89e7db93cda0bfc46c6b3764736f6c63430008000033",
  "immutableReferences": {},
  "source": "// SPDX-License-Identifier: MIT\r\npragma solidity ^0.8.0;\r\n\r\ncontract DiplomaVerificationContract {\r\n    struct Diploma {\r\n        address student;\r\n        string institution;\r\n        string program;\r\n        uint256 date;\r\n    }\r\n\r\n    mapping(uint256 => Diploma) public diplomas;\r\n    uint256 public diplomaCount;\r\n\r\n    address public admin;\r\n\r\n    event DiplomaCreated(\r\n        uint256 indexed diplomaId,\r\n        address indexed student,\r\n        string institution,\r\n        string program,\r\n        uint256 date\r\n    );\r\n\r\n    event AdminChanged(address indexed newAdmin);\r\n\r\n    modifier onlyAdmin() {\r\n        require(msg.sender == admin, \"Only admin can perform this action\");\r\n        _;\r\n    }\r\n\r\n    constructor() {\r\n        admin = msg.sender;\r\n    }\r\n\r\n    function createDiploma(\r\n        address student,\r\n        string memory institution,\r\n        string memory program,\r\n        uint256 date\r\n    ) public onlyAdmin {\r\n        require(student != address(0), \"Student address cannot be zero address\");\r\n        require(bytes(institution).length > 0, \"Institution name cannot be empty\");\r\n        require(bytes(program).length > 0, \"Program name cannot be empty\");\r\n        \r\n        diplomaCount++;\r\n        diplomas[diplomaCount] = Diploma(student, institution, program, date);\r\n\r\n        emit DiplomaCreated(diplomaCount, student, institution, program, date);\r\n    }\r\n\r\n    function getDiploma(uint256 diplomaId) public view returns (Diploma memory) {\r\n        require(diplomaId > 0 && diplomaId <= diplomaCount, \"Invalid diploma ID\");\r\n        return diplomas[diplomaId];\r\n    }\r\n\r\n    function verifyDiploma(uint256 diplomaId) public view returns (bool) {\r\n        require(diplomaId > 0 && diplomaId <= diplomaCount, \"Invalid diploma ID\");\r\n        return diplomas[diplomaId].student != address(0);\r\n    }\r\n\r\n    function transferAdmin(address newAdmin) public onlyAdmin {\r\n        require(newAdmin != address(0), \"New admin address cannot be zero address\");\r\n        admin = newAdmin;\r\n        emit AdminChanged(newAdmin);\r\n    }\r\n}\r\n",
  "sourcePath": "C:\\Users\\escan\\OneDrive\\Desktop\\Dapp\\contracts\\Verification.sol",
  "compiler": {
    "name": "solc",
    "version": "0.8.0+commit.c7dfd78e.Emscripten.clang"
  },
  "schemaVersion": "3.4.16",
  "updatedAt": "2024-09-29T15:32:49.973Z",
  "networkType": "ethereum",
  "devdoc": {
    "kind": "dev",
    "methods": {},
    "version": 1
  },
  "userdoc": {
    "kind": "user",
    "methods": {},
    "version": 1
  }
}