{
  "contractName": "InstitutionContract",
  "abi": [
    {
      "inputs": [],
      "stateMutability": "nonpayable",
      "type": "constructor"
    },
    {
      "anonymous": false,
      "inputs": [
        {
          "indexed": true,
          "internalType": "address",
          "name": "newAdmin",
          "type": "address"
        }
      ],
      "name": "AdminChanged",
      "type": "event"
    },
    {
      "anonymous": false,
      "inputs": [
        {
          "indexed": false,
          "internalType": "string",
          "name": "institutionName",
          "type": "string"
        },
        {
          "indexed": true,
          "internalType": "address",
          "name": "institutionAddress",
          "type": "address"
        },
        {
          "indexed": false,
          "internalType": "bool",
          "name": "isAuthorized",
          "type": "bool"
        }
      ],
      "name": "InstitutionRegistered",
      "type": "event"
    },
    {
      "anonymous": false,
      "inputs": [
        {
          "indexed": true,
          "internalType": "address",
          "name": "institutionAddress",
          "type": "address"
        },
        {
          "indexed": false,
          "internalType": "bool",
          "name": "isAuthorized",
          "type": "bool"
        }
      ],
      "name": "InstitutionVerified",
      "type": "event"
    },
    {
      "inputs": [],
      "name": "admin",
      "outputs": [
        {
          "internalType": "address",
          "name": "",
          "type": "address"
        }
      ],
      "stateMutability": "view",
      "type": "function",
      "constant": true
    },
    {
      "inputs": [
        {
          "internalType": "address",
          "name": "",
          "type": "address"
        }
      ],
      "name": "institutions",
      "outputs": [
        {
          "internalType": "string",
          "name": "name",
          "type": "string"
        },
        {
          "internalType": "address",
          "name": "institutionAddress",
          "type": "address"
        },
        {
          "internalType": "bool",
          "name": "isAuthorized",
          "type": "bool"
        }
      ],
      "stateMutability": "view",
      "type": "function",
      "constant": true
    },
    {
      "inputs": [
        {
          "internalType": "string",
          "name": "institutionName",
          "type": "string"
        },
        {
          "internalType": "address",
          "name": "institutionAddress",
          "type": "address"
        }
      ],
      "name": "registerInstitution",
      "outputs": [],
      "stateMutability": "nonpayable",
      "type": "function"
    },
    {
      "inputs": [
        {
          "internalType": "address",
          "name": "institutionAddress",
          "type": "address"
        }
      ],
      "name": "verifyInstitution",
      "outputs": [
        {
          "internalType": "bool",
          "name": "",
          "type": "bool"
        }
      ],
      "stateMutability": "view",
      "type": "function",
      "constant": true
    },
    {
      "inputs": [
        {
          "internalType": "address",
          "name": "newAdmin",
          "type": "address"
        }
      ],
      "name": "transferAdmin",
      "outputs": [],
      "stateMutability": "nonpayable",
      "type": "function"
    }
  ],
  "bytecode": "0x608060405234801561001057600080fd5b5033600160006101000a81548173ffffffffffffffffffffffffffffffffffffffff021916908373ffffffffffffffffffffffffffffffffffffffff1602179055506110d9806100616000396000f3fe608060405234801561001057600080fd5b50600436106100575760003560e01c80633e1685161461005c57806375829def1461008c578063b2d9767f146100a8578063bd23cd30146100da578063f851a440146100f6575b600080fd5b61007660048036038101906100719190610a64565b610114565b6040516100839190610d85565b60405180910390f35b6100a660048036038101906100a19190610a64565b610356565b005b6100c260048036038101906100bd9190610a64565b6104dd565b6040516100d193929190610da0565b60405180910390f35b6100f460048036038101906100ef9190610a8d565b6105bc565b005b6100fe61091e565b60405161010b9190610d6a565b60405180910390f35b60008073ffffffffffffffffffffffffffffffffffffffff168273ffffffffffffffffffffffffffffffffffffffff161415610185576040517f08c379a000000000000000000000000000000000000000000000000000000000815260040161017c90610e0e565b60405180910390fd5b60008060008473ffffffffffffffffffffffffffffffffffffffff1673ffffffffffffffffffffffffffffffffffffffff1681526020019081526020016000206040518060600160405290816000820180546101e090610feb565b80601f016020809104026020016040519081016040528092919081815260200182805461020c90610feb565b80156102595780601f1061022e57610100808354040283529160200191610259565b820191906000526020600020905b81548152906001019060200180831161023c57829003601f168201915b505050505081526020016001820160009054906101000a900473ffffffffffffffffffffffffffffffffffffffff1673ffffffffffffffffffffffffffffffffffffffff1673ffffffffffffffffffffffffffffffffffffffff1681526020016001820160149054906101000a900460ff1615151515815250509050600073ffffffffffffffffffffffffffffffffffffffff16816020015173ffffffffffffffffffffffffffffffffffffffff161415610349576040517f08c379a000000000000000000000000000000000000000000000000000000000815260040161034090610e4e565b60405180910390fd5b8060400151915050919050565b600160009054906101000a900473ffffffffffffffffffffffffffffffffffffffff1673ffffffffffffffffffffffffffffffffffffffff163373ffffffffffffffffffffffffffffffffffffffff16146103e6576040517f08c379a00000000000000000000000000000000000000000000000000000000081526004016103dd90610e8e565b60405180910390fd5b600073ffffffffffffffffffffffffffffffffffffffff168173ffffffffffffffffffffffffffffffffffffffff161415610456576040517f08c379a000000000000000000000000000000000000000000000000000000000815260040161044d90610eae565b60405180910390fd5b80600160006101000a81548173ffffffffffffffffffffffffffffffffffffffff021916908373ffffffffffffffffffffffffffffffffffffffff1602179055508073ffffffffffffffffffffffffffffffffffffffff167f7ce7ec0b50378fb6c0186ffb5f48325f6593fcb4ca4386f21861af3129188f5c60405160405180910390a250565b600060205280600052604060002060009150905080600001805461050090610feb565b80601f016020809104026020016040519081016040528092919081815260200182805461052c90610feb565b80156105795780601f1061054e57610100808354040283529160200191610579565b820191906000526020600020905b81548152906001019060200180831161055c57829003601f168201915b5050505050908060010160009054906101000a900473ffffffffffffffffffffffffffffffffffffffff16908060010160149054906101000a900460ff16905083565b600160009054906101000a900473ffffffffffffffffffffffffffffffffffffffff1673ffffffffffffffffffffffffffffffffffffffff163373ffffffffffffffffffffffffffffffffffffffff161461064c576040517f08c379a000000000000000000000000000000000000000000000000000000000815260040161064390610e8e565b60405180910390fd5b600073ffffffffffffffffffffffffffffffffffffffff168173ffffffffffffffffffffffffffffffffffffffff1614156106bc576040517f08c379a00000000000000000000000000000000000000000000000000000000081526004016106b390610e6e565b60405180910390fd5b6000825111610700576040517f08c379a00000000000000000000000000000000000000000000000000000000081526004016106f790610ece565b60405180910390fd5b600073ffffffffffffffffffffffffffffffffffffffff166000808373ffffffffffffffffffffffffffffffffffffffff1673ffffffffffffffffffffffffffffffffffffffff16815260200190815260200160002060010160009054906101000a900473ffffffffffffffffffffffffffffffffffffffff1673ffffffffffffffffffffffffffffffffffffffff16146107d0576040517f08c379a00000000000000000000000000000000000000000000000000000000081526004016107c790610e2e565b60405180910390fd5b60405180606001604052808381526020018273ffffffffffffffffffffffffffffffffffffffff168152602001600115158152506000808373ffffffffffffffffffffffffffffffffffffffff1673ffffffffffffffffffffffffffffffffffffffff168152602001908152602001600020600082015181600001908051906020019061085e929190610944565b5060208201518160010160006101000a81548173ffffffffffffffffffffffffffffffffffffffff021916908373ffffffffffffffffffffffffffffffffffffffff16021790555060408201518160010160146101000a81548160ff0219169083151502179055509050508073ffffffffffffffffffffffffffffffffffffffff167f959a6d5c9ed9798ff3447fb42f0c1090af05f6ff440f9e417d1f0cf8fec66ff6836001604051610912929190610dde565b60405180910390a25050565b600160009054906101000a900473ffffffffffffffffffffffffffffffffffffffff1681565b82805461095090610feb565b90600052602060002090601f01602090048101928261097257600085556109b9565b82601f1061098b57805160ff19168380011785556109b9565b828001600101855582156109b9579182015b828111156109b857825182559160200191906001019061099d565b5b5090506109c691906109ca565b5090565b5b808211156109e35760008160009055506001016109cb565b5090565b60006109fa6109f584610f1f565b610eee565b905082815260208101848484011115610a1257600080fd5b610a1d848285610fa9565b509392505050565b600081359050610a348161108c565b92915050565b600082601f830112610a4b57600080fd5b8135610a5b8482602086016109e7565b91505092915050565b600060208284031215610a7657600080fd5b6000610a8484828501610a25565b91505092915050565b60008060408385031215610aa057600080fd5b600083013567ffffffffffffffff811115610aba57600080fd5b610ac685828601610a3a565b9250506020610ad785828601610a25565b9150509250929050565b610aea81610f6b565b82525050565b610af981610f7d565b82525050565b6000610b0a82610f4f565b610b148185610f5a565b9350610b24818560208601610fb8565b610b2d8161107b565b840191505092915050565b6000610b45601e83610f5a565b91507f416464726573732063616e6e6f74206265207a65726f206164647265737300006000830152602082019050919050565b6000610b85601e83610f5a565b91507f496e737469747574696f6e20616c7265616479207265676973746572656400006000830152602082019050919050565b6000610bc5601a83610f5a565b91507f496e737469747574696f6e206e6f7420726567697374657265640000000000006000830152602082019050919050565b6000610c05602a83610f5a565b91507f496e737469747574696f6e20616464726573732063616e6e6f74206265207a6560008301527f726f2061646472657373000000000000000000000000000000000000000000006020830152604082019050919050565b6000610c6b602283610f5a565b91507f4f6e6c792061646d696e2063616e20706572666f726d2074686973206163746960008301527f6f6e0000000000000000000000000000000000000000000000000000000000006020830152604082019050919050565b6000610cd1602883610f5a565b91507f4e65772061646d696e20616464726573732063616e6e6f74206265207a65726f60008301527f20616464726573730000000000000000000000000000000000000000000000006020830152604082019050919050565b6000610d37602083610f5a565b91507f496e737469747574696f6e206e616d652063616e6e6f7420626520656d7074796000830152602082019050919050565b6000602082019050610d7f6000830184610ae1565b92915050565b6000602082019050610d9a6000830184610af0565b92915050565b60006060820190508181036000830152610dba8186610aff565b9050610dc96020830185610ae1565b610dd66040830184610af0565b949350505050565b60006040820190508181036000830152610df88185610aff565b9050610e076020830184610af0565b9392505050565b60006020820190508181036000830152610e2781610b38565b9050919050565b60006020820190508181036000830152610e4781610b78565b9050919050565b60006020820190508181036000830152610e6781610bb8565b9050919050565b60006020820190508181036000830152610e8781610bf8565b9050919050565b60006020820190508181036000830152610ea781610c5e565b9050919050565b60006020820190508181036000830152610ec781610cc4565b9050919050565b60006020820190508181036000830152610ee781610d2a565b9050919050565b6000604051905081810181811067ffffffffffffffff82111715610f1557610f1461104c565b5b8060405250919050565b600067ffffffffffffffff821115610f3a57610f3961104c565b5b601f19601f8301169050602081019050919050565b600081519050919050565b600082825260208201905092915050565b6000610f7682610f89565b9050919050565b60008115159050919050565b600073ffffffffffffffffffffffffffffffffffffffff82169050919050565b82818337600083830152505050565b60005b83811015610fd6578082015181840152602081019050610fbb565b83811115610fe5576000848401525b50505050565b6000600282049050600182168061100357607f821691505b602082108114156110175761101661101d565b5b50919050565b7f4e487b7100000000000000000000000000000000000000000000000000000000600052602260045260246000fd5b7f4e487b7100000000000000000000000000000000000000000000000000000000600052604160045260246000fd5b6000601f19601f8301169050919050565b61109581610f6b565b81146110a057600080fd5b5056fea26469706673582212200e6a18cc57492d3a412a11cdd369c99fc03d7e5175ff34b96ab9eb785e74950764736f6c63430008000033",
  "immutableReferences": {},
  "source": "// SPDX-License-Identifier: MIT\r\npragma solidity ^0.8.0;\r\n\r\ncontract InstitutionContract {\r\n    struct Institution {\r\n        string name;\r\n        address institutionAddress;\r\n        bool isAuthorized;\r\n    }\r\n\r\n    mapping(address => Institution) public institutions;\r\n    address public admin;\r\n\r\n    // Events\r\n    event InstitutionRegistered(\r\n        string institutionName,\r\n        address indexed institutionAddress,\r\n        bool isAuthorized\r\n    );\r\n    \r\n    event InstitutionVerified(\r\n        address indexed institutionAddress,\r\n        bool isAuthorized\r\n    );\r\n\r\n    event AdminChanged(address indexed newAdmin);\r\n\r\n    // Modifier to restrict function access to the admin\r\n    modifier onlyAdmin() {\r\n        require(msg.sender == admin, \"Only admin can perform this action\");\r\n        _;\r\n    }\r\n\r\n    // Constructor to set the deployer as the admin\r\n    constructor() {\r\n        admin = msg.sender;\r\n    }\r\n\r\n    // Function to register an institution (only callable by admin)\r\n    function registerInstitution(string memory institutionName, address institutionAddress) public onlyAdmin {\r\n        require(institutionAddress != address(0), \"Institution address cannot be zero address\");\r\n        require(bytes(institutionName).length > 0, \"Institution name cannot be empty\");\r\n        require(institutions[institutionAddress].institutionAddress == address(0), \"Institution already registered\");\r\n\r\n        institutions[institutionAddress] = Institution(institutionName, institutionAddress, true);\r\n\r\n        emit InstitutionRegistered(institutionName, institutionAddress, true);\r\n    }\r\n\r\n    // Function to verify if an institution is authorized\r\n    function verifyInstitution(address institutionAddress) public view returns (bool) {\r\n    require(institutionAddress != address(0), \"Address cannot be zero address\");\r\n    Institution memory institution = institutions[institutionAddress];\r\n    require(institution.institutionAddress != address(0), \"Institution not registered\");\r\n    \r\n    return institution.isAuthorized;\r\n    }\r\n\r\n\r\n    // Function to transfer admin rights to a new address (only callable by admin)\r\n    function transferAdmin(address newAdmin) public onlyAdmin {\r\n        require(newAdmin != address(0), \"New admin address cannot be zero address\");\r\n\r\n        admin = newAdmin;\r\n        emit AdminChanged(newAdmin);\r\n    }\r\n}\r\n",
  "sourcePath": "C:\\Users\\escan\\OneDrive\\Desktop\\Dapp\\contracts\\InstitutionContract.sol",
  "compiler": {
    "name": "solc",
    "version": "0.8.0+commit.c7dfd78e.Emscripten.clang"
  },
  "schemaVersion": "3.4.16",
  "updatedAt": "2024-09-29T15:32:49.922Z",
  "networkType": "ethereum",
  "devdoc": {
    "kind": "dev",
    "methods": {},
    "version": 1
  },
  "userdoc": {
    "kind": "user",
    "methods": {},
    "version": 1
  }
}