{
  "contractName": "PermissionContract",
  "abi": [
    {
      "inputs": [],
      "stateMutability": "nonpayable",
      "type": "constructor"
    },
    {
      "anonymous": false,
      "inputs": [
        {
          "indexed": true,
          "internalType": "address",
          "name": "newAdmin",
          "type": "address"
        }
      ],
      "name": "AdminChanged",
      "type": "event"
    },
    {
      "anonymous": false,
      "inputs": [
        {
          "indexed": true,
          "internalType": "address",
          "name": "user",
          "type": "address"
        },
        {
          "indexed": false,
          "internalType": "string",
          "name": "role",
          "type": "string"
        }
      ],
      "name": "PermissionGranted",
      "type": "event"
    },
    {
      "anonymous": false,
      "inputs": [
        {
          "indexed": true,
          "internalType": "address",
          "name": "user",
          "type": "address"
        },
        {
          "indexed": false,
          "internalType": "string",
          "name": "role",
          "type": "string"
        }
      ],
      "name": "PermissionRevoked",
      "type": "event"
    },
    {
      "inputs": [],
      "name": "admin",
      "outputs": [
        {
          "internalType": "address",
          "name": "",
          "type": "address"
        }
      ],
      "stateMutability": "view",
      "type": "function",
      "constant": true
    },
    {
      "inputs": [
        {
          "internalType": "address",
          "name": "",
          "type": "address"
        }
      ],
      "name": "userRoles",
      "outputs": [
        {
          "internalType": "enum PermissionContract.Role",
          "name": "",
          "type": "uint8"
        }
      ],
      "stateMutability": "view",
      "type": "function",
      "constant": true
    },
    {
      "inputs": [
        {
          "internalType": "address",
          "name": "user",
          "type": "address"
        },
        {
          "internalType": "string",
          "name": "role",
          "type": "string"
        }
      ],
      "name": "grantPermission",
      "outputs": [],
      "stateMutability": "nonpayable",
      "type": "function"
    },
    {
      "inputs": [
        {
          "internalType": "address",
          "name": "user",
          "type": "address"
        }
      ],
      "name": "revokePermission",
      "outputs": [],
      "stateMutability": "nonpayable",
      "type": "function"
    },
    {
      "inputs": [
        {
          "internalType": "enum PermissionContract.Role",
          "name": "role",
          "type": "uint8"
        }
      ],
      "name": "getRoleString",
      "outputs": [
        {
          "internalType": "string",
          "name": "",
          "type": "string"
        }
      ],
      "stateMutability": "pure",
      "type": "function",
      "constant": true
    },
    {
      "inputs": [
        {
          "internalType": "address",
          "name": "newAdmin",
          "type": "address"
        }
      ],
      "name": "transferAdmin",
      "outputs": [],
      "stateMutability": "nonpayable",
      "type": "function"
    }
  ],
  "bytecode": "0x608060405234801561001057600080fd5b5033600160006101000a81548173ffffffffffffffffffffffffffffffffffffffff021916908373ffffffffffffffffffffffffffffffffffffffff1602179055506000806000600160009054906101000a900473ffffffffffffffffffffffffffffffffffffffff1673ffffffffffffffffffffffffffffffffffffffff1673ffffffffffffffffffffffffffffffffffffffff16815260200190815260200160002060006101000a81548160ff021916908360038111156100fc577f4e487b7100000000000000000000000000000000000000000000000000000000600052602160045260246000fd5b02179055506115b6806101106000396000f3fe608060405234801561001057600080fd5b50600436106100625760003560e01c80633f3c0a581461006757806374d5e1001461009757806375829def146100c7578063a3bf5b9a146100e3578063bbd9a5fa146100ff578063f851a4401461011b575b600080fd5b610081600480360381019061007c9190611036565b610139565b60405161008e91906112de565b60405180910390f35b6100b160048036038101906100ac9190610fb9565b61042a565b6040516100be91906112c3565b60405180910390f35b6100e160048036038101906100dc9190610fb9565b61044a565b005b6100fd60048036038101906100f89190610fb9565b61070d565b005b61011960048036038101906101149190610fe2565b6109b9565b005b610123610f01565b60405161013091906112a8565b60405180910390f35b606060006003811115610175577f4e487b7100000000000000000000000000000000000000000000000000000000600052602160045260246000fd5b8260038111156101ae577f4e487b7100000000000000000000000000000000000000000000000000000000600052602160045260246000fd5b14156101f1576040518060400160405280600581526020017f41444d494e0000000000000000000000000000000000000000000000000000008152509050610425565b6001600381111561022b577f4e487b7100000000000000000000000000000000000000000000000000000000600052602160045260246000fd5b826003811115610264577f4e487b7100000000000000000000000000000000000000000000000000000000600052602160045260246000fd5b14156102a7576040518060400160405280600b81526020017f494e535449545554494f4e0000000000000000000000000000000000000000008152509050610425565b600260038111156102e1577f4e487b7100000000000000000000000000000000000000000000000000000000600052602160045260246000fd5b82600381111561031a577f4e487b7100000000000000000000000000000000000000000000000000000000600052602160045260246000fd5b141561035d576040518060400160405280600781526020017f53545544454e54000000000000000000000000000000000000000000000000008152509050610425565b600380811115610396577f4e487b7100000000000000000000000000000000000000000000000000000000600052602160045260246000fd5b8260038111156103cf577f4e487b7100000000000000000000000000000000000000000000000000000000600052602160045260246000fd5b1415610412576040518060400160405280600881526020017f454d504c4f5945520000000000000000000000000000000000000000000000008152509050610425565b6040518060200160405280600081525090505b919050565b60006020528060005260406000206000915054906101000a900460ff1681565b600160009054906101000a900473ffffffffffffffffffffffffffffffffffffffff1673ffffffffffffffffffffffffffffffffffffffff163373ffffffffffffffffffffffffffffffffffffffff16146104da576040517f08c379a00000000000000000000000000000000000000000000000000000000081526004016104d190611380565b60405180910390fd5b600073ffffffffffffffffffffffffffffffffffffffff168173ffffffffffffffffffffffffffffffffffffffff16141561054a576040517f08c379a0000000000000000000000000000000000000000000000000000000008152600401610541906113a0565b60405180910390fd5b6002600080600160009054906101000a900473ffffffffffffffffffffffffffffffffffffffff1673ffffffffffffffffffffffffffffffffffffffff1673ffffffffffffffffffffffffffffffffffffffff16815260200190815260200160002060006101000a81548160ff021916908360038111156105f4577f4e487b7100000000000000000000000000000000000000000000000000000000600052602160045260246000fd5b021790555060008060008373ffffffffffffffffffffffffffffffffffffffff1673ffffffffffffffffffffffffffffffffffffffff16815260200190815260200160002060006101000a81548160ff02191690836003811115610681577f4e487b7100000000000000000000000000000000000000000000000000000000600052602160045260246000fd5b021790555080600160006101000a81548173ffffffffffffffffffffffffffffffffffffffff021916908373ffffffffffffffffffffffffffffffffffffffff1602179055508073ffffffffffffffffffffffffffffffffffffffff167f7ce7ec0b50378fb6c0186ffb5f48325f6593fcb4ca4386f21861af3129188f5c60405160405180910390a250565b600160009054906101000a900473ffffffffffffffffffffffffffffffffffffffff1673ffffffffffffffffffffffffffffffffffffffff163373ffffffffffffffffffffffffffffffffffffffff161461079d576040517f08c379a000000000000000000000000000000000000000000000000000000000815260040161079490611380565b60405180910390fd5b600073ffffffffffffffffffffffffffffffffffffffff168173ffffffffffffffffffffffffffffffffffffffff16141561080d576040517f08c379a000000000000000000000000000000000000000000000000000000000815260040161080490611360565b60405180910390fd5b60008060008373ffffffffffffffffffffffffffffffffffffffff1673ffffffffffffffffffffffffffffffffffffffff16815260200190815260200160002060009054906101000a900460ff16905060006003811115610897577f4e487b7100000000000000000000000000000000000000000000000000000000600052602160045260246000fd5b8160038111156108d0577f4e487b7100000000000000000000000000000000000000000000000000000000600052602160045260246000fd5b1415610911576040517f08c379a000000000000000000000000000000000000000000000000000000000815260040161090890611300565b60405180910390fd5b6000808373ffffffffffffffffffffffffffffffffffffffff1673ffffffffffffffffffffffffffffffffffffffff16815260200190815260200160002060006101000a81549060ff02191690558173ffffffffffffffffffffffffffffffffffffffff167f280695bd728e67c68c12776e30681a8ca746d6122488eab32b7bdec64eb2e7336109a083610139565b6040516109ad91906112de565b60405180910390a25050565b600160009054906101000a900473ffffffffffffffffffffffffffffffffffffffff1673ffffffffffffffffffffffffffffffffffffffff163373ffffffffffffffffffffffffffffffffffffffff1614610a49576040517f08c379a0000000000000000000000000000000000000000000000000000000008152600401610a4090611380565b60405180910390fd5b600073ffffffffffffffffffffffffffffffffffffffff168273ffffffffffffffffffffffffffffffffffffffff161415610ab9576040517f08c379a0000000000000000000000000000000000000000000000000000000008152600401610ab090611360565b60405180910390fd5b6000815111610afd576040517f08c379a0000000000000000000000000000000000000000000000000000000008152600401610af490611340565b60405180910390fd5b6040518060400160405280600581526020017f41444d494e0000000000000000000000000000000000000000000000000000008152508051906020012081805190602001201415610bda5760008060008473ffffffffffffffffffffffffffffffffffffffff1673ffffffffffffffffffffffffffffffffffffffff16815260200190815260200160002060006101000a81548160ff02191690836003811115610bd0577f4e487b7100000000000000000000000000000000000000000000000000000000600052602160045260246000fd5b0217905550610eaf565b6040518060400160405280600b81526020017f494e535449545554494f4e0000000000000000000000000000000000000000008152508051906020012081805190602001201415610cb75760016000808473ffffffffffffffffffffffffffffffffffffffff1673ffffffffffffffffffffffffffffffffffffffff16815260200190815260200160002060006101000a81548160ff02191690836003811115610cad577f4e487b7100000000000000000000000000000000000000000000000000000000600052602160045260246000fd5b0217905550610eae565b6040518060400160405280600781526020017f53545544454e54000000000000000000000000000000000000000000000000008152508051906020012081805190602001201415610d945760026000808473ffffffffffffffffffffffffffffffffffffffff1673ffffffffffffffffffffffffffffffffffffffff16815260200190815260200160002060006101000a81548160ff02191690836003811115610d8a577f4e487b7100000000000000000000000000000000000000000000000000000000600052602160045260246000fd5b0217905550610ead565b6040518060400160405280600881526020017f454d504c4f5945520000000000000000000000000000000000000000000000008152508051906020012081805190602001201415610e715760036000808473ffffffffffffffffffffffffffffffffffffffff1673ffffffffffffffffffffffffffffffffffffffff16815260200190815260200160002060006101000a81548160ff02191690836003811115610e67577f4e487b7100000000000000000000000000000000000000000000000000000000600052602160045260246000fd5b0217905550610eac565b6040517f08c379a0000000000000000000000000000000000000000000000000000000008152600401610ea390611320565b60405180910390fd5b5b5b5b8173ffffffffffffffffffffffffffffffffffffffff167f3e7a939fe856e16ddb4b017165d29dcf6d87c6bc6115a55d7895ec3e7d4c66a182604051610ef591906112de565b60405180910390a25050565b600160009054906101000a900473ffffffffffffffffffffffffffffffffffffffff1681565b6000610f3a610f35846113f1565b6113c0565b905082815260208101848484011115610f5257600080fd5b610f5d848285611494565b509392505050565b600081359050610f7481611559565b92915050565b600081359050610f8981611570565b92915050565b600082601f830112610fa057600080fd5b8135610fb0848260208601610f27565b91505092915050565b600060208284031215610fcb57600080fd5b6000610fd984828501610f65565b91505092915050565b60008060408385031215610ff557600080fd5b600061100385828601610f65565b925050602083013567ffffffffffffffff81111561102057600080fd5b61102c85828601610f8f565b9150509250929050565b60006020828403121561104857600080fd5b600061105684828501610f7a565b91505092915050565b6110688161143d565b82525050565b61107781611482565b82525050565b600061108882611421565b611092818561142c565b93506110a28185602086016114a3565b6110ab81611534565b840191505092915050565b60006110c360188361142c565b91507f43616e6e6f74207265766f6b652061646d696e20726f6c6500000000000000006000830152602082019050919050565b6000611103600c8361142c565b91507f496e76616c696420726f6c6500000000000000000000000000000000000000006000830152602082019050919050565b600061114360148361142c565b91507f526f6c652063616e6e6f7420626520656d7074790000000000000000000000006000830152602082019050919050565b600061118360238361142c565b91507f5573657220616464726573732063616e6e6f74206265207a65726f206164647260008301527f65737300000000000000000000000000000000000000000000000000000000006020830152604082019050919050565b60006111e960228361142c565b91507f4f6e6c792061646d696e2063616e20706572666f726d2074686973206163746960008301527f6f6e0000000000000000000000000000000000000000000000000000000000006020830152604082019050919050565b600061124f60288361142c565b91507f4e65772061646d696e20616464726573732063616e6e6f74206265207a65726f60008301527f20616464726573730000000000000000000000000000000000000000000000006020830152604082019050919050565b60006020820190506112bd600083018461105f565b92915050565b60006020820190506112d8600083018461106e565b92915050565b600060208201905081810360008301526112f8818461107d565b905092915050565b60006020820190508181036000830152611319816110b6565b9050919050565b60006020820190508181036000830152611339816110f6565b9050919050565b6000602082019050818103600083015261135981611136565b9050919050565b6000602082019050818103600083015261137981611176565b9050919050565b60006020820190508181036000830152611399816111dc565b9050919050565b600060208201905081810360008301526113b981611242565b9050919050565b6000604051905081810181811067ffffffffffffffff821117156113e7576113e6611505565b5b8060405250919050565b600067ffffffffffffffff82111561140c5761140b611505565b5b601f19601f8301169050602081019050919050565b600081519050919050565b600082825260208201905092915050565b600061144882611462565b9050919050565b600081905061145d82611545565b919050565b600073ffffffffffffffffffffffffffffffffffffffff82169050919050565b600061148d8261144f565b9050919050565b82818337600083830152505050565b60005b838110156114c15780820151818401526020810190506114a6565b838111156114d0576000848401525b50505050565b7f4e487b7100000000000000000000000000000000000000000000000000000000600052602160045260246000fd5b7f4e487b7100000000000000000000000000000000000000000000000000000000600052604160045260246000fd5b6000601f19601f8301169050919050565b60048110611556576115556114d6565b5b50565b6115628161143d565b811461156d57600080fd5b50565b6004811061157d57600080fd5b5056fea264697066735822122089277d08f95c75ec89f9d0f3d9a21153134f125452dd8563b9e33bae5bc5102764736f6c63430008000033",
  "immutableReferences": {},
  "source": "// SPDX-License-Identifier: MIT\r\npragma solidity ^0.8.0;\r\n\r\ncontract PermissionContract {\r\n    enum Role { ADMIN, INSTITUTION, STUDENT, EMPLOYER }\r\n\r\n    mapping(address => Role) public userRoles;\r\n    address public admin;\r\n\r\n    event PermissionGranted(address indexed user, string role);\r\n    event PermissionRevoked(address indexed user, string role);\r\n    event AdminChanged(address indexed newAdmin);\r\n\r\n    modifier onlyAdmin() {\r\n        require(msg.sender == admin, \"Only admin can perform this action\");\r\n        _;\r\n    }\r\n\r\n    constructor() {\r\n        admin = msg.sender;\r\n        userRoles[admin] = Role.ADMIN;\r\n    }\r\n\r\n    function grantPermission(address user, string memory role) public onlyAdmin {\r\n        require(user != address(0), \"User address cannot be zero address\");\r\n        require(bytes(role).length > 0, \"Role cannot be empty\");\r\n\r\n        if (keccak256(bytes(role)) == keccak256(bytes(\"ADMIN\"))) {\r\n            userRoles[user] = Role.ADMIN;\r\n        } else if (keccak256(bytes(role)) == keccak256(bytes(\"INSTITUTION\"))) {\r\n            userRoles[user] = Role.INSTITUTION;\r\n        } else if (keccak256(bytes(role)) == keccak256(bytes(\"STUDENT\"))) {\r\n            userRoles[user] = Role.STUDENT;\r\n        } else if (keccak256(bytes(role)) == keccak256(bytes(\"EMPLOYER\"))) {\r\n            userRoles[user] = Role.EMPLOYER;\r\n        } else {\r\n            revert(\"Invalid role\");\r\n        }\r\n\r\n        emit PermissionGranted(user, role);\r\n    }\r\n\r\n    function revokePermission(address user) public onlyAdmin {\r\n        require(user != address(0), \"User address cannot be zero address\");\r\n        Role currentRole = userRoles[user]; // Rcuprer le rle avant suppression\r\n        require(currentRole != Role.ADMIN, \"Cannot revoke admin role\");\r\n\r\n        delete userRoles[user];\r\n        emit PermissionRevoked(user, getRoleString(currentRole)); // Utiliser le rle rcupr avant suppression\r\n    }\r\n\r\n    function getRoleString(Role role) public pure returns (string memory) {\r\n        if (role == Role.ADMIN) {\r\n            return \"ADMIN\";\r\n        } else if (role == Role.INSTITUTION) {\r\n            return \"INSTITUTION\";\r\n        } else if (role == Role.STUDENT) {\r\n            return \"STUDENT\";\r\n        } else if (role == Role.EMPLOYER) {\r\n            return \"EMPLOYER\";\r\n        } else {\r\n            return \"\";\r\n        }\r\n    }\r\n\r\n    function transferAdmin(address newAdmin) public onlyAdmin {\r\n        require(newAdmin != address(0), \"New admin address cannot be zero address\");\r\n        \r\n        // Rvoquer le rle d'admin de l'ancien administrateur avant le transfert\r\n        userRoles[admin] = Role.STUDENT; // ou un autre rle par dfaut\r\n        userRoles[newAdmin] = Role.ADMIN;\r\n        \r\n        admin = newAdmin;\r\n\r\n        emit AdminChanged(newAdmin);\r\n    }\r\n}\r\n",
  "sourcePath": "C:\\Users\\escan\\OneDrive\\Desktop\\Dapp\\contracts\\PermissionContract.sol",
  "compiler": {
    "name": "solc",
    "version": "0.8.0+commit.c7dfd78e.Emscripten.clang"
  },
  "schemaVersion": "3.4.16",
  "updatedAt": "2024-09-29T15:32:49.940Z",
  "networkType": "ethereum",
  "devdoc": {
    "kind": "dev",
    "methods": {},
    "version": 1
  },
  "userdoc": {
    "kind": "user",
    "methods": {},
    "version": 1
  }
}