{
  "contractName": "StudentContract",
  "abi": [
    {
      "inputs": [],
      "stateMutability": "nonpayable",
      "type": "constructor"
    },
    {
      "anonymous": false,
      "inputs": [
        {
          "indexed": true,
          "internalType": "address",
          "name": "newAdmin",
          "type": "address"
        }
      ],
      "name": "AdminChanged",
      "type": "event"
    },
    {
      "anonymous": false,
      "inputs": [
        {
          "indexed": true,
          "internalType": "address",
          "name": "studentAddress",
          "type": "address"
        },
        {
          "indexed": false,
          "internalType": "uint256",
          "name": "diplomaId",
          "type": "uint256"
        }
      ],
      "name": "DiplomaAddedToStudent",
      "type": "event"
    },
    {
      "anonymous": false,
      "inputs": [
        {
          "indexed": true,
          "internalType": "address",
          "name": "studentAddress",
          "type": "address"
        },
        {
          "indexed": false,
          "internalType": "string",
          "name": "studentName",
          "type": "string"
        }
      ],
      "name": "StudentRegistered",
      "type": "event"
    },
    {
      "inputs": [],
      "name": "admin",
      "outputs": [
        {
          "internalType": "address",
          "name": "",
          "type": "address"
        }
      ],
      "stateMutability": "view",
      "type": "function",
      "constant": true
    },
    {
      "inputs": [
        {
          "internalType": "address",
          "name": "",
          "type": "address"
        }
      ],
      "name": "students",
      "outputs": [
        {
          "internalType": "string",
          "name": "name",
          "type": "string"
        }
      ],
      "stateMutability": "view",
      "type": "function",
      "constant": true
    },
    {
      "inputs": [
        {
          "internalType": "address",
          "name": "studentAddress",
          "type": "address"
        },
        {
          "internalType": "string",
          "name": "studentName",
          "type": "string"
        }
      ],
      "name": "registerStudent",
      "outputs": [],
      "stateMutability": "nonpayable",
      "type": "function"
    },
    {
      "inputs": [
        {
          "internalType": "address",
          "name": "studentAddress",
          "type": "address"
        },
        {
          "internalType": "uint256",
          "name": "diplomaId",
          "type": "uint256"
        }
      ],
      "name": "addDiplomaToStudent",
      "outputs": [],
      "stateMutability": "nonpayable",
      "type": "function"
    },
    {
      "inputs": [
        {
          "internalType": "address",
          "name": "studentAddress",
          "type": "address"
        }
      ],
      "name": "getStudentDiplomas",
      "outputs": [
        {
          "internalType": "uint256[]",
          "name": "",
          "type": "uint256[]"
        }
      ],
      "stateMutability": "view",
      "type": "function",
      "constant": true
    },
    {
      "inputs": [
        {
          "internalType": "address",
          "name": "newAdmin",
          "type": "address"
        }
      ],
      "name": "transferAdmin",
      "outputs": [],
      "stateMutability": "nonpayable",
      "type": "function"
    }
  ],
  "bytecode": "0x608060405234801561001057600080fd5b5033600160006101000a81548173ffffffffffffffffffffffffffffffffffffffff021916908373ffffffffffffffffffffffffffffffffffffffff160217905550610f9d806100616000396000f3fe608060405234801561001057600080fd5b50600436106100625760003560e01c8063165983421461006757806375829def146100835780637bb5aec71461009f578063a6c807a9146100bb578063d1b93292146100eb578063f851a4401461011b575b600080fd5b610081600480360381019061007c919061092c565b610139565b005b61009d60048036038101906100989190610903565b61031b565b005b6100b960048036038101906100b49190610980565b6104a2565b005b6100d560048036038101906100d09190610903565b61067c565b6040516100e29190610c87565b60405180910390f35b61010560048036038101906101009190610903565b610722565b6040516101129190610c65565b60405180910390f35b61012361084b565b6040516101309190610c4a565b60405180910390f35b600160009054906101000a900473ffffffffffffffffffffffffffffffffffffffff1673ffffffffffffffffffffffffffffffffffffffff163373ffffffffffffffffffffffffffffffffffffffff16146101c9576040517f08c379a00000000000000000000000000000000000000000000000000000000081526004016101c090610d09565b60405180910390fd5b600073ffffffffffffffffffffffffffffffffffffffff168273ffffffffffffffffffffffffffffffffffffffff161415610239576040517f08c379a000000000000000000000000000000000000000000000000000000000815260040161023090610ce9565b60405180910390fd5b60008060008473ffffffffffffffffffffffffffffffffffffffff1673ffffffffffffffffffffffffffffffffffffffff168152602001908152602001600020600001805461028790610e98565b9050146102c9576040517f08c379a00000000000000000000000000000000000000000000000000000000081526004016102c090610cc9565b60405180910390fd5b8173ffffffffffffffffffffffffffffffffffffffff167fc1b20826100814ba286ac576fe980df1dbbcef3d904bb81f3d69a0e8280dc1148260405161030f9190610c87565b60405180910390a25050565b600160009054906101000a900473ffffffffffffffffffffffffffffffffffffffff1673ffffffffffffffffffffffffffffffffffffffff163373ffffffffffffffffffffffffffffffffffffffff16146103ab576040517f08c379a00000000000000000000000000000000000000000000000000000000081526004016103a290610d09565b60405180910390fd5b600073ffffffffffffffffffffffffffffffffffffffff168173ffffffffffffffffffffffffffffffffffffffff16141561041b576040517f08c379a000000000000000000000000000000000000000000000000000000000815260040161041290610d29565b60405180910390fd5b80600160006101000a81548173ffffffffffffffffffffffffffffffffffffffff021916908373ffffffffffffffffffffffffffffffffffffffff1602179055508073ffffffffffffffffffffffffffffffffffffffff167f7ce7ec0b50378fb6c0186ffb5f48325f6593fcb4ca4386f21861af3129188f5c60405160405180910390a250565b600160009054906101000a900473ffffffffffffffffffffffffffffffffffffffff1673ffffffffffffffffffffffffffffffffffffffff163373ffffffffffffffffffffffffffffffffffffffff1614610532576040517f08c379a000000000000000000000000000000000000000000000000000000000815260040161052990610d09565b60405180910390fd5b60008060008473ffffffffffffffffffffffffffffffffffffffff1673ffffffffffffffffffffffffffffffffffffffff168152602001908152602001600020600001805461058090610e98565b9050116105c2576040517f08c379a00000000000000000000000000000000000000000000000000000000081526004016105b990610ca9565b60405180910390fd5b6000808373ffffffffffffffffffffffffffffffffffffffff1673ffffffffffffffffffffffffffffffffffffffff1681526020019081526020016000206001018190806001815401808255809150506001900390600052602060002001600090919091909150558173ffffffffffffffffffffffffffffffffffffffff167fe9cf8f98ec3731cedb48960d1e8b1bf33c2fcf8bd72ad064fb5fdb4ebb0d7daf826040516106709190610d49565b60405180910390a25050565b600060205280600052604060002060009150905080600001805461069f90610e98565b80601f01602080910402602001604051908101604052809291908181526020018280546106cb90610e98565b80156107185780601f106106ed57610100808354040283529160200191610718565b820191906000526020600020905b8154815290600101906020018083116106fb57829003601f168201915b5050505050905081565b606060008060008473ffffffffffffffffffffffffffffffffffffffff1673ffffffffffffffffffffffffffffffffffffffff168152602001908152602001600020600001805461077290610e98565b9050116107b4576040517f08c379a00000000000000000000000000000000000000000000000000000000081526004016107ab90610ca9565b60405180910390fd5b6000808373ffffffffffffffffffffffffffffffffffffffff1673ffffffffffffffffffffffffffffffffffffffff16815260200190815260200160002060010180548060200260200160405190810160405280929190818152602001828054801561083f57602002820191906000526020600020905b81548152602001906001019080831161082b575b50505050509050919050565b600160009054906101000a900473ffffffffffffffffffffffffffffffffffffffff1681565b600061088461087f84610d95565b610d64565b90508281526020810184848401111561089c57600080fd5b6108a7848285610e56565b509392505050565b6000813590506108be81610f39565b92915050565b600082601f8301126108d557600080fd5b81356108e5848260208601610871565b91505092915050565b6000813590506108fd81610f50565b92915050565b60006020828403121561091557600080fd5b6000610923848285016108af565b91505092915050565b6000806040838503121561093f57600080fd5b600061094d858286016108af565b925050602083013567ffffffffffffffff81111561096a57600080fd5b610976858286016108c4565b9150509250929050565b6000806040838503121561099357600080fd5b60006109a1858286016108af565b92505060206109b2858286016108ee565b9150509250929050565b60006109c88383610c2c565b60208301905092915050565b6109dd81610e1a565b82525050565b60006109ee82610dd5565b6109f88185610df8565b9350610a0383610dc5565b8060005b83811015610a34578151610a1b88826109bc565b9750610a2683610deb565b925050600181019050610a07565b5085935050505092915050565b6000610a4c82610de0565b610a568185610e09565b9350610a66818560208601610e65565b610a6f81610f28565b840191505092915050565b6000610a87601683610e09565b91507f53747564656e74206e6f742072656769737465726564000000000000000000006000830152602082019050919050565b6000610ac7601a83610e09565b91507f53747564656e7420616c726561647920726567697374657265640000000000006000830152602082019050919050565b6000610b07602683610e09565b91507f53747564656e7420616464726573732063616e6e6f74206265207a65726f206160008301527f64647265737300000000000000000000000000000000000000000000000000006020830152604082019050919050565b6000610b6d602283610e09565b91507f4f6e6c792061646d696e2063616e20706572666f726d2074686973206163746960008301527f6f6e0000000000000000000000000000000000000000000000000000000000006020830152604082019050919050565b6000610bd3602883610e09565b91507f4e65772061646d696e20616464726573732063616e6e6f74206265207a65726f60008301527f20616464726573730000000000000000000000000000000000000000000000006020830152604082019050919050565b610c3581610e4c565b82525050565b610c4481610e4c565b82525050565b6000602082019050610c5f60008301846109d4565b92915050565b60006020820190508181036000830152610c7f81846109e3565b905092915050565b60006020820190508181036000830152610ca18184610a41565b905092915050565b60006020820190508181036000830152610cc281610a7a565b9050919050565b60006020820190508181036000830152610ce281610aba565b9050919050565b60006020820190508181036000830152610d0281610afa565b9050919050565b60006020820190508181036000830152610d2281610b60565b9050919050565b60006020820190508181036000830152610d4281610bc6565b9050919050565b6000602082019050610d5e6000830184610c3b565b92915050565b6000604051905081810181811067ffffffffffffffff82111715610d8b57610d8a610ef9565b5b8060405250919050565b600067ffffffffffffffff821115610db057610daf610ef9565b5b601f19601f8301169050602081019050919050565b6000819050602082019050919050565b600081519050919050565b600081519050919050565b6000602082019050919050565b600082825260208201905092915050565b600082825260208201905092915050565b6000610e2582610e2c565b9050919050565b600073ffffffffffffffffffffffffffffffffffffffff82169050919050565b6000819050919050565b82818337600083830152505050565b60005b83811015610e83578082015181840152602081019050610e68565b83811115610e92576000848401525b50505050565b60006002820490506001821680610eb057607f821691505b60208210811415610ec457610ec3610eca565b5b50919050565b7f4e487b7100000000000000000000000000000000000000000000000000000000600052602260045260246000fd5b7f4e487b7100000000000000000000000000000000000000000000000000000000600052604160045260246000fd5b6000601f19601f8301169050919050565b610f4281610e1a565b8114610f4d57600080fd5b50565b610f5981610e4c565b8114610f6457600080fd5b5056fea2646970667358221220ad84e9dc05170884c95dc91329aa24552ca5afddea194d33b058c1bc996728fc64736f6c63430008000033",
  "immutableReferences": {},
  "source": "// SPDX-License-Identifier: MIT\r\npragma solidity ^0.8.0;\r\n\r\ncontract StudentContract {\r\n    struct Student {\r\n        string name;\r\n        uint256[] diplomaIds;\r\n    }\r\n\r\n    mapping(address => Student) public students;\r\n    address public admin;\r\n\r\n    event StudentRegistered(address indexed studentAddress, string studentName);\r\n    event DiplomaAddedToStudent(address indexed studentAddress, uint256 diplomaId);\r\n    event AdminChanged(address indexed newAdmin);\r\n\r\n    modifier onlyAdmin() {\r\n        require(msg.sender == admin, \"Only admin can perform this action\");\r\n        _;\r\n    }\r\n\r\n    constructor() {\r\n        admin = msg.sender;\r\n    }\r\n\r\n    function registerStudent(address studentAddress, string memory studentName) public onlyAdmin {\r\n        require(studentAddress != address(0), \"Student address cannot be zero address\");\r\n        require(bytes(students[studentAddress].name).length == 0, \"Student already registered\");\r\n\r\n        students;\r\n        emit StudentRegistered(studentAddress, studentName);\r\n    }\r\n\r\n    function addDiplomaToStudent(address studentAddress, uint256 diplomaId) public onlyAdmin {\r\n        require(bytes(students[studentAddress].name).length > 0, \"Student not registered\");\r\n        students[studentAddress].diplomaIds.push(diplomaId);\r\n        emit DiplomaAddedToStudent(studentAddress, diplomaId);\r\n    }\r\n\r\n    function getStudentDiplomas(address studentAddress) public view returns (uint256[] memory) {\r\n        require(bytes(students[studentAddress].name).length > 0, \"Student not registered\");\r\n        return students[studentAddress].diplomaIds;\r\n    }\r\n\r\n    function transferAdmin(address newAdmin) public onlyAdmin {\r\n        require(newAdmin != address(0), \"New admin address cannot be zero address\");\r\n        admin = newAdmin;\r\n        emit AdminChanged(newAdmin);\r\n    }\r\n}\r\n",
  "sourcePath": "C:\\Users\\escan\\OneDrive\\Desktop\\Dapp\\contracts\\StudentContract.sol",
  "compiler": {
    "name": "solc",
    "version": "0.8.0+commit.c7dfd78e.Emscripten.clang"
  },
  "schemaVersion": "3.4.16",
  "updatedAt": "2024-09-29T15:32:49.907Z",
  "networkType": "ethereum",
  "devdoc": {
    "kind": "dev",
    "methods": {},
    "version": 1
  },
  "userdoc": {
    "kind": "user",
    "methods": {},
    "version": 1
  }
}