{
  "contractName": "TransactionContract",
  "abi": [
    {
      "inputs": [],
      "stateMutability": "nonpayable",
      "type": "constructor"
    },
    {
      "anonymous": false,
      "inputs": [
        {
          "indexed": true,
          "internalType": "address",
          "name": "newAdmin",
          "type": "address"
        }
      ],
      "name": "AdminChanged",
      "type": "event"
    },
    {
      "anonymous": false,
      "inputs": [
        {
          "indexed": true,
          "internalType": "uint256",
          "name": "transactionId",
          "type": "uint256"
        },
        {
          "indexed": true,
          "internalType": "address",
          "name": "sender",
          "type": "address"
        },
        {
          "indexed": true,
          "internalType": "address",
          "name": "receiver",
          "type": "address"
        },
        {
          "indexed": false,
          "internalType": "string",
          "name": "transactionType",
          "type": "string"
        },
        {
          "indexed": false,
          "internalType": "uint256",
          "name": "timestamp",
          "type": "uint256"
        }
      ],
      "name": "TransactionRecorded",
      "type": "event"
    },
    {
      "inputs": [],
      "name": "admin",
      "outputs": [
        {
          "internalType": "address",
          "name": "",
          "type": "address"
        }
      ],
      "stateMutability": "view",
      "type": "function",
      "constant": true
    },
    {
      "inputs": [],
      "name": "transactionCount",
      "outputs": [
        {
          "internalType": "uint256",
          "name": "",
          "type": "uint256"
        }
      ],
      "stateMutability": "view",
      "type": "function",
      "constant": true
    },
    {
      "inputs": [
        {
          "internalType": "uint256",
          "name": "",
          "type": "uint256"
        }
      ],
      "name": "transactions",
      "outputs": [
        {
          "internalType": "address",
          "name": "sender",
          "type": "address"
        },
        {
          "internalType": "address",
          "name": "receiver",
          "type": "address"
        },
        {
          "internalType": "string",
          "name": "transactionType",
          "type": "string"
        },
        {
          "internalType": "uint256",
          "name": "timestamp",
          "type": "uint256"
        }
      ],
      "stateMutability": "view",
      "type": "function",
      "constant": true
    },
    {
      "inputs": [
        {
          "internalType": "address",
          "name": "sender",
          "type": "address"
        },
        {
          "internalType": "address",
          "name": "receiver",
          "type": "address"
        },
        {
          "internalType": "string",
          "name": "transactionType",
          "type": "string"
        },
        {
          "internalType": "uint256",
          "name": "timestamp",
          "type": "uint256"
        }
      ],
      "name": "recordTransaction",
      "outputs": [],
      "stateMutability": "nonpayable",
      "type": "function"
    },
    {
      "inputs": [
        {
          "internalType": "uint256",
          "name": "transactionId",
          "type": "uint256"
        }
      ],
      "name": "getTransaction",
      "outputs": [
        {
          "components": [
            {
              "internalType": "address",
              "name": "sender",
              "type": "address"
            },
            {
              "internalType": "address",
              "name": "receiver",
              "type": "address"
            },
            {
              "internalType": "string",
              "name": "transactionType",
              "type": "string"
            },
            {
              "internalType": "uint256",
              "name": "timestamp",
              "type": "uint256"
            }
          ],
          "internalType": "struct TransactionContract.Transaction",
          "name": "",
          "type": "tuple"
        }
      ],
      "stateMutability": "view",
      "type": "function",
      "constant": true
    },
    {
      "inputs": [
        {
          "internalType": "address",
          "name": "newAdmin",
          "type": "address"
        }
      ],
      "name": "transferAdmin",
      "outputs": [],
      "stateMutability": "nonpayable",
      "type": "function"
    }
  ],
  "bytecode": "0x608060405234801561001057600080fd5b5033600260006101000a81548173ffffffffffffffffffffffffffffffffffffffff021916908373ffffffffffffffffffffffffffffffffffffffff16021790555061129f806100616000396000f3fe608060405234801561001057600080fd5b50600436106100625760003560e01c80632c850eaa1461006757806333ea3dc81461008357806375829def146100b35780639ace38c2146100cf578063b77bf60014610102578063f851a44014610120575b600080fd5b610081600480360381019061007c9190610ab5565b61013e565b005b61009d60048036038101906100989190610b30565b610492565b6040516100aa9190610fd9565b60405180910390f35b6100cd60048036038101906100c89190610a8c565b610658565b005b6100e960048036038101906100e49190610b30565b6107df565b6040516100f99493929190610e9d565b60405180910390f35b61010a6108d7565b6040516101179190610ffb565b60405180910390f35b6101286108dd565b6040516101359190610e82565b60405180910390f35b600260009054906101000a900473ffffffffffffffffffffffffffffffffffffffff1673ffffffffffffffffffffffffffffffffffffffff163373ffffffffffffffffffffffffffffffffffffffff16146101ce576040517f08c379a00000000000000000000000000000000000000000000000000000000081526004016101c590610f59565b60405180910390fd5b600073ffffffffffffffffffffffffffffffffffffffff168473ffffffffffffffffffffffffffffffffffffffff16141561023e576040517f08c379a000000000000000000000000000000000000000000000000000000000815260040161023590610fb9565b60405180910390fd5b600073ffffffffffffffffffffffffffffffffffffffff168373ffffffffffffffffffffffffffffffffffffffff1614156102ae576040517f08c379a00000000000000000000000000000000000000000000000000000000081526004016102a590610f19565b60405180910390fd5b60008251116102f2576040517f08c379a00000000000000000000000000000000000000000000000000000000081526004016102e990610f39565b60405180910390fd5b60008081548092919061030490611154565b919050555060405180608001604052808573ffffffffffffffffffffffffffffffffffffffff1681526020018473ffffffffffffffffffffffffffffffffffffffff16815260200183815260200182815250600160008054815260200190815260200160002060008201518160000160006101000a81548173ffffffffffffffffffffffffffffffffffffffff021916908373ffffffffffffffffffffffffffffffffffffffff16021790555060208201518160010160006101000a81548173ffffffffffffffffffffffffffffffffffffffff021916908373ffffffffffffffffffffffffffffffffffffffff1602179055506040820151816002019080519060200190610414929190610903565b50606082015181600301559050508273ffffffffffffffffffffffffffffffffffffffff168473ffffffffffffffffffffffffffffffffffffffff166000547feca8c77163c8cd7ebfbb8b3b12d1921e339e0f8abf6b3130ef392f91a5d0823f8585604051610484929190610ee9565b60405180910390a450505050565b61049a610989565b6000821180156104ac57506000548211155b6104eb576040517f08c379a00000000000000000000000000000000000000000000000000000000081526004016104e290610f79565b60405180910390fd5b600160008381526020019081526020016000206040518060800160405290816000820160009054906101000a900473ffffffffffffffffffffffffffffffffffffffff1673ffffffffffffffffffffffffffffffffffffffff1673ffffffffffffffffffffffffffffffffffffffff1681526020016001820160009054906101000a900473ffffffffffffffffffffffffffffffffffffffff1673ffffffffffffffffffffffffffffffffffffffff1673ffffffffffffffffffffffffffffffffffffffff1681526020016002820180546105c590611122565b80601f01602080910402602001604051908101604052809291908181526020018280546105f190611122565b801561063e5780601f106106135761010080835404028352916020019161063e565b820191906000526020600020905b81548152906001019060200180831161062157829003601f168201915b505050505081526020016003820154815250509050919050565b600260009054906101000a900473ffffffffffffffffffffffffffffffffffffffff1673ffffffffffffffffffffffffffffffffffffffff163373ffffffffffffffffffffffffffffffffffffffff16146106e8576040517f08c379a00000000000000000000000000000000000000000000000000000000081526004016106df90610f59565b60405180910390fd5b600073ffffffffffffffffffffffffffffffffffffffff168173ffffffffffffffffffffffffffffffffffffffff161415610758576040517f08c379a000000000000000000000000000000000000000000000000000000000815260040161074f90610f99565b60405180910390fd5b80600260006101000a81548173ffffffffffffffffffffffffffffffffffffffff021916908373ffffffffffffffffffffffffffffffffffffffff1602179055508073ffffffffffffffffffffffffffffffffffffffff167f7ce7ec0b50378fb6c0186ffb5f48325f6593fcb4ca4386f21861af3129188f5c60405160405180910390a250565b60016020528060005260406000206000915090508060000160009054906101000a900473ffffffffffffffffffffffffffffffffffffffff16908060010160009054906101000a900473ffffffffffffffffffffffffffffffffffffffff169080600201805461084e90611122565b80601f016020809104026020016040519081016040528092919081815260200182805461087a90611122565b80156108c75780601f1061089c576101008083540402835291602001916108c7565b820191906000526020600020905b8154815290600101906020018083116108aa57829003601f168201915b5050505050908060030154905084565b60005481565b600260009054906101000a900473ffffffffffffffffffffffffffffffffffffffff1681565b82805461090f90611122565b90600052602060002090601f0160209004810192826109315760008555610978565b82601f1061094a57805160ff1916838001178555610978565b82800160010185558215610978579182015b8281111561097757825182559160200191906001019061095c565b5b50905061098591906109dd565b5090565b6040518060800160405280600073ffffffffffffffffffffffffffffffffffffffff168152602001600073ffffffffffffffffffffffffffffffffffffffff16815260200160608152602001600081525090565b5b808211156109f65760008160009055506001016109de565b5090565b6000610a0d610a0884611047565b611016565b905082815260208101848484011115610a2557600080fd5b610a308482856110e0565b509392505050565b600081359050610a478161123b565b92915050565b600082601f830112610a5e57600080fd5b8135610a6e8482602086016109fa565b91505092915050565b600081359050610a8681611252565b92915050565b600060208284031215610a9e57600080fd5b6000610aac84828501610a38565b91505092915050565b60008060008060808587031215610acb57600080fd5b6000610ad987828801610a38565b9450506020610aea87828801610a38565b935050604085013567ffffffffffffffff811115610b0757600080fd5b610b1387828801610a4d565b9250506060610b2487828801610a77565b91505092959194509250565b600060208284031215610b4257600080fd5b6000610b5084828501610a77565b91505092915050565b610b62816110a4565b82525050565b610b71816110a4565b82525050565b6000610b8282611077565b610b8c8185611082565b9350610b9c8185602086016110ef565b610ba58161122a565b840191505092915050565b6000610bbb82611077565b610bc58185611093565b9350610bd58185602086016110ef565b610bde8161122a565b840191505092915050565b6000610bf6602783611093565b91507f526563656976657220616464726573732063616e6e6f74206265207a65726f2060008301527f61646472657373000000000000000000000000000000000000000000000000006020830152604082019050919050565b6000610c5c602083611093565b91507f5472616e73616374696f6e20747970652063616e6e6f7420626520656d7074796000830152602082019050919050565b6000610c9c602283611093565b91507f4f6e6c792061646d696e2063616e20706572666f726d2074686973206163746960008301527f6f6e0000000000000000000000000000000000000000000000000000000000006020830152604082019050919050565b6000610d02601683611093565b91507f496e76616c6964207472616e73616374696f6e204944000000000000000000006000830152602082019050919050565b6000610d42602883611093565b91507f4e65772061646d696e20616464726573732063616e6e6f74206265207a65726f60008301527f20616464726573730000000000000000000000000000000000000000000000006020830152604082019050919050565b6000610da8602583611093565b91507f53656e64657220616464726573732063616e6e6f74206265207a65726f20616460008301527f64726573730000000000000000000000000000000000000000000000000000006020830152604082019050919050565b6000608083016000830151610e196000860182610b59565b506020830151610e2c6020860182610b59565b5060408301518482036040860152610e448282610b77565b9150506060830151610e596060860182610e64565b508091505092915050565b610e6d816110d6565b82525050565b610e7c816110d6565b82525050565b6000602082019050610e976000830184610b68565b92915050565b6000608082019050610eb26000830187610b68565b610ebf6020830186610b68565b8181036040830152610ed18185610bb0565b9050610ee06060830184610e73565b95945050505050565b60006040820190508181036000830152610f038185610bb0565b9050610f126020830184610e73565b9392505050565b60006020820190508181036000830152610f3281610be9565b9050919050565b60006020820190508181036000830152610f5281610c4f565b9050919050565b60006020820190508181036000830152610f7281610c8f565b9050919050565b60006020820190508181036000830152610f9281610cf5565b9050919050565b60006020820190508181036000830152610fb281610d35565b9050919050565b60006020820190508181036000830152610fd281610d9b565b9050919050565b60006020820190508181036000830152610ff38184610e01565b905092915050565b60006020820190506110106000830184610e73565b92915050565b6000604051905081810181811067ffffffffffffffff8211171561103d5761103c6111fb565b5b8060405250919050565b600067ffffffffffffffff821115611062576110616111fb565b5b601f19601f8301169050602081019050919050565b600081519050919050565b600082825260208201905092915050565b600082825260208201905092915050565b60006110af826110b6565b9050919050565b600073ffffffffffffffffffffffffffffffffffffffff82169050919050565b6000819050919050565b82818337600083830152505050565b60005b8381101561110d5780820151818401526020810190506110f2565b8381111561111c576000848401525b50505050565b6000600282049050600182168061113a57607f821691505b6020821081141561114e5761114d6111cc565b5b50919050565b600061115f826110d6565b91507fffffffffffffffffffffffffffffffffffffffffffffffffffffffffffffffff8214156111925761119161119d565b5b600182019050919050565b7f4e487b7100000000000000000000000000000000000000000000000000000000600052601160045260246000fd5b7f4e487b7100000000000000000000000000000000000000000000000000000000600052602260045260246000fd5b7f4e487b7100000000000000000000000000000000000000000000000000000000600052604160045260246000fd5b6000601f19601f8301169050919050565b611244816110a4565b811461124f57600080fd5b50565b61125b816110d6565b811461126657600080fd5b5056fea26469706673582212201398f09d12906b4d6863733584fb250c9c679c5cde560047b608ab8f9fc8120864736f6c63430008000033",
  "immutableReferences": {},
  "source": "// SPDX-License-Identifier: MIT\r\npragma solidity ^0.8.0;\r\n\r\ncontract TransactionContract {\r\n    struct Transaction {\r\n        address sender;\r\n        address receiver;\r\n        string transactionType;\r\n        uint256 timestamp;\r\n    }\r\n\r\n    uint256 public transactionCount;\r\n    mapping(uint256 => Transaction) public transactions;\r\n    address public admin;\r\n\r\n    event TransactionRecorded(\r\n        uint256 indexed transactionId,\r\n        address indexed sender,\r\n        address indexed receiver,\r\n        string transactionType,\r\n        uint256 timestamp\r\n    );\r\n\r\n    event AdminChanged(address indexed newAdmin);\r\n\r\n    modifier onlyAdmin() {\r\n        require(msg.sender == admin, \"Only admin can perform this action\");\r\n        _;\r\n    }\r\n\r\n    constructor() {\r\n        admin = msg.sender;\r\n    }\r\n\r\n    function recordTransaction(\r\n        address sender,\r\n        address receiver,\r\n        string memory transactionType,\r\n        uint256 timestamp\r\n    ) public onlyAdmin {\r\n        require(sender != address(0), \"Sender address cannot be zero address\");\r\n        require(receiver != address(0), \"Receiver address cannot be zero address\");\r\n        require(bytes(transactionType).length > 0, \"Transaction type cannot be empty\");\r\n\r\n        transactionCount++;\r\n        transactions[transactionCount] = Transaction(sender, receiver, transactionType, timestamp);\r\n\r\n        emit TransactionRecorded(transactionCount, sender, receiver, transactionType, timestamp);\r\n    }\r\n\r\n    function getTransaction(uint256 transactionId) public view returns (Transaction memory) {\r\n        require(transactionId > 0 && transactionId <= transactionCount, \"Invalid transaction ID\");\r\n        return transactions[transactionId];\r\n    }\r\n\r\n    function transferAdmin(address newAdmin) public onlyAdmin {\r\n        require(newAdmin != address(0), \"New admin address cannot be zero address\");\r\n        admin = newAdmin;\r\n        emit AdminChanged(newAdmin);\r\n    }\r\n}\r\n",
  "sourcePath": "C:\\Users\\escan\\OneDrive\\Desktop\\Dapp\\contracts\\TransactionContract.sol",
  "compiler": {
    "name": "solc",
    "version": "0.8.0+commit.c7dfd78e.Emscripten.clang"
  },
  "schemaVersion": "3.4.16",
  "updatedAt": "2024-09-29T15:32:49.957Z",
  "networkType": "ethereum",
  "devdoc": {
    "kind": "dev",
    "methods": {},
    "version": 1
  },
  "userdoc": {
    "kind": "user",
    "methods": {},
    "version": 1
  }
}